{
  "_format": "hh-sol-artifact-1",
  "contractName": "Asset",
  "sourceName": "contracts/token/Asset.sol",
  "abi": [
    {
      "inputs": [
        {
          "internalType": "string",
          "name": "_name",
          "type": "string"
        },
        {
          "internalType": "string",
          "name": "_symbol",
          "type": "string"
        },
        {
          "internalType": "string",
          "name": "_baseTokenURI",
          "type": "string"
        },
        {
          "internalType": "uint256",
          "name": "_lastTokenId",
          "type": "uint256"
        }
      ],
      "stateMutability": "nonpayable",
      "type": "constructor"
    },
    {
      "inputs": [],
      "name": "ExceedMinterAllowance",
      "type": "error"
    },
    {
      "inputs": [],
      "name": "InvalidAddress",
      "type": "error"
    },
    {
      "inputs": [],
      "name": "InvalidAmount",
      "type": "error"
    },
    {
      "inputs": [],
      "name": "MathOverflow",
      "type": "error"
    },
    {
      "inputs": [],
      "name": "NoChangeToTheState",
      "type": "error"
    },
    {
      "inputs": [],
      "name": "NoMinterRole",
      "type": "error"
    },
    {
      "inputs": [],
      "name": "NotOwnerNorApproved",
      "type": "error"
    },
    {
      "anonymous": false,
      "inputs": [
        {
          "indexed": true,
          "internalType": "address",
          "name": "owner",
          "type": "address"
        },
        {
          "indexed": true,
          "internalType": "address",
          "name": "approved",
          "type": "address"
        },
        {
          "indexed": true,
          "internalType": "uint256",
          "name": "tokenId",
          "type": "uint256"
        }
      ],
      "name": "Approval",
      "type": "event"
    },
    {
      "anonymous": false,
      "inputs": [
        {
          "indexed": true,
          "internalType": "address",
          "name": "owner",
          "type": "address"
        },
        {
          "indexed": true,
          "internalType": "address",
          "name": "operator",
          "type": "address"
        },
        {
          "indexed": false,
          "internalType": "bool",
          "name": "approved",
          "type": "bool"
        }
      ],
      "name": "ApprovalForAll",
      "type": "event"
    },
    {
      "anonymous": false,
      "inputs": [
        {
          "indexed": true,
          "internalType": "address",
          "name": "minter",
          "type": "address"
        },
        {
          "indexed": false,
          "internalType": "uint256",
          "name": "amount",
          "type": "uint256"
        }
      ],
      "name": "LogAllowanceDecreased",
      "type": "event"
    },
    {
      "anonymous": false,
      "inputs": [
        {
          "indexed": true,
          "internalType": "address",
          "name": "minter",
          "type": "address"
        },
        {
          "indexed": false,
          "internalType": "uint256",
          "name": "amount",
          "type": "uint256"
        }
      ],
      "name": "LogAllowanceIncreased",
      "type": "event"
    },
    {
      "anonymous": false,
      "inputs": [
        {
          "indexed": false,
          "internalType": "string",
          "name": "baseTokenURI",
          "type": "string"
        }
      ],
      "name": "LogBaseTokenURISet",
      "type": "event"
    },
    {
      "anonymous": false,
      "inputs": [
        {
          "indexed": true,
          "internalType": "address",
          "name": "account",
          "type": "address"
        }
      ],
      "name": "LogBlacklistAdded",
      "type": "event"
    },
    {
      "anonymous": false,
      "inputs": [
        {
          "indexed": true,
          "internalType": "address",
          "name": "account",
          "type": "address"
        }
      ],
      "name": "LogBlacklistRemoved",
      "type": "event"
    },
    {
      "anonymous": false,
      "inputs": [
        {
          "indexed": true,
          "internalType": "uint256",
          "name": "tokenId",
          "type": "uint256"
        }
      ],
      "name": "LogBurnt",
      "type": "event"
    },
    {
      "anonymous": false,
      "inputs": [
        {
          "indexed": true,
          "internalType": "address",
          "name": "account",
          "type": "address"
        },
        {
          "indexed": true,
          "internalType": "uint256",
          "name": "tokenId",
          "type": "uint256"
        }
      ],
      "name": "LogMinted",
      "type": "event"
    },
    {
      "anonymous": false,
      "inputs": [
        {
          "indexed": true,
          "internalType": "address",
          "name": "account",
          "type": "address"
        }
      ],
      "name": "LogMinterAdded",
      "type": "event"
    },
    {
      "anonymous": false,
      "inputs": [
        {
          "indexed": true,
          "internalType": "address",
          "name": "account",
          "type": "address"
        }
      ],
      "name": "LogMinterRemoved",
      "type": "event"
    },
    {
      "anonymous": false,
      "inputs": [
        {
          "indexed": true,
          "internalType": "address",
          "name": "previousOwner",
          "type": "address"
        },
        {
          "indexed": true,
          "internalType": "address",
          "name": "newOwner",
          "type": "address"
        }
      ],
      "name": "OwnershipTransferred",
      "type": "event"
    },
    {
      "anonymous": false,
      "inputs": [
        {
          "indexed": false,
          "internalType": "address",
          "name": "account",
          "type": "address"
        }
      ],
      "name": "Paused",
      "type": "event"
    },
    {
      "anonymous": false,
      "inputs": [
        {
          "indexed": true,
          "internalType": "bytes32",
          "name": "role",
          "type": "bytes32"
        },
        {
          "indexed": true,
          "internalType": "bytes32",
          "name": "previousAdminRole",
          "type": "bytes32"
        },
        {
          "indexed": true,
          "internalType": "bytes32",
          "name": "newAdminRole",
          "type": "bytes32"
        }
      ],
      "name": "RoleAdminChanged",
      "type": "event"
    },
    {
      "anonymous": false,
      "inputs": [
        {
          "indexed": true,
          "internalType": "bytes32",
          "name": "role",
          "type": "bytes32"
        },
        {
          "indexed": true,
          "internalType": "address",
          "name": "account",
          "type": "address"
        },
        {
          "indexed": true,
          "internalType": "address",
          "name": "sender",
          "type": "address"
        }
      ],
      "name": "RoleGranted",
      "type": "event"
    },
    {
      "anonymous": false,
      "inputs": [
        {
          "indexed": true,
          "internalType": "bytes32",
          "name": "role",
          "type": "bytes32"
        },
        {
          "indexed": true,
          "internalType": "address",
          "name": "account",
          "type": "address"
        },
        {
          "indexed": true,
          "internalType": "address",
          "name": "sender",
          "type": "address"
        }
      ],
      "name": "RoleRevoked",
      "type": "event"
    },
    {
      "anonymous": false,
      "inputs": [
        {
          "indexed": true,
          "internalType": "address",
          "name": "from",
          "type": "address"
        },
        {
          "indexed": true,
          "internalType": "address",
          "name": "to",
          "type": "address"
        },
        {
          "indexed": true,
          "internalType": "uint256",
          "name": "tokenId",
          "type": "uint256"
        }
      ],
      "name": "Transfer",
      "type": "event"
    },
    {
      "anonymous": false,
      "inputs": [
        {
          "indexed": false,
          "internalType": "address",
          "name": "account",
          "type": "address"
        }
      ],
      "name": "Unpaused",
      "type": "event"
    },
    {
      "anonymous": false,
      "inputs": [
        {
          "indexed": true,
          "internalType": "uint256",
          "name": "tokenId",
          "type": "uint256"
        },
        {
          "indexed": true,
          "internalType": "address",
          "name": "user",
          "type": "address"
        },
        {
          "indexed": false,
          "internalType": "uint64",
          "name": "expires",
          "type": "uint64"
        }
      ],
      "name": "UpdateUser",
      "type": "event"
    },
    {
      "inputs": [],
      "name": "DEFAULT_ADMIN_ROLE",
      "outputs": [
        {
          "internalType": "bytes32",
          "name": "",
          "type": "bytes32"
        }
      ],
      "stateMutability": "view",
      "type": "function"
    },
    {
      "inputs": [],
      "name": "MINTER_ROLE",
      "outputs": [
        {
          "internalType": "bytes32",
          "name": "",
          "type": "bytes32"
        }
      ],
      "stateMutability": "view",
      "type": "function"
    },
    {
      "inputs": [
        {
          "internalType": "address[]",
          "name": "_accounts",
          "type": "address[]"
        }
      ],
      "name": "addBlacklist",
      "outputs": [],
      "stateMutability": "nonpayable",
      "type": "function"
    },
    {
      "inputs": [
        {
          "internalType": "address",
          "name": "_account",
          "type": "address"
        }
      ],
      "name": "addMinter",
      "outputs": [],
      "stateMutability": "nonpayable",
      "type": "function"
    },
    {
      "inputs": [
        {
          "internalType": "address",
          "name": "to",
          "type": "address"
        },
        {
          "internalType": "uint256",
          "name": "tokenId",
          "type": "uint256"
        }
      ],
      "name": "approve",
      "outputs": [],
      "stateMutability": "nonpayable",
      "type": "function"
    },
    {
      "inputs": [
        {
          "internalType": "address",
          "name": "owner",
          "type": "address"
        }
      ],
      "name": "balanceOf",
      "outputs": [
        {
          "internalType": "uint256",
          "name": "",
          "type": "uint256"
        }
      ],
      "stateMutability": "view",
      "type": "function"
    },
    {
      "inputs": [],
      "name": "baseTokenURI",
      "outputs": [
        {
          "internalType": "string",
          "name": "",
          "type": "string"
        }
      ],
      "stateMutability": "view",
      "type": "function"
    },
    {
      "inputs": [
        {
          "internalType": "address",
          "name": "",
          "type": "address"
        }
      ],
      "name": "blacklist",
      "outputs": [
        {
          "internalType": "bool",
          "name": "",
          "type": "bool"
        }
      ],
      "stateMutability": "view",
      "type": "function"
    },
    {
      "inputs": [
        {
          "internalType": "uint256",
          "name": "_tokenId",
          "type": "uint256"
        }
      ],
      "name": "burn",
      "outputs": [],
      "stateMutability": "nonpayable",
      "type": "function"
    },
    {
      "inputs": [
        {
          "internalType": "address",
          "name": "_minter",
          "type": "address"
        },
        {
          "internalType": "uint256",
          "name": "_amount",
          "type": "uint256"
        }
      ],
      "name": "decreaseAllowance",
      "outputs": [],
      "stateMutability": "nonpayable",
      "type": "function"
    },
    {
      "inputs": [],
      "name": "deleteDefaultRoyalty",
      "outputs": [],
      "stateMutability": "nonpayable",
      "type": "function"
    },
    {
      "inputs": [
        {
          "internalType": "uint256",
          "name": "tokenId",
          "type": "uint256"
        }
      ],
      "name": "getApproved",
      "outputs": [
        {
          "internalType": "address",
          "name": "",
          "type": "address"
        }
      ],
      "stateMutability": "view",
      "type": "function"
    },
    {
      "inputs": [
        {
          "internalType": "bytes32",
          "name": "role",
          "type": "bytes32"
        }
      ],
      "name": "getRoleAdmin",
      "outputs": [
        {
          "internalType": "bytes32",
          "name": "",
          "type": "bytes32"
        }
      ],
      "stateMutability": "view",
      "type": "function"
    },
    {
      "inputs": [
        {
          "internalType": "bytes32",
          "name": "role",
          "type": "bytes32"
        },
        {
          "internalType": "address",
          "name": "account",
          "type": "address"
        }
      ],
      "name": "grantRole",
      "outputs": [],
      "stateMutability": "nonpayable",
      "type": "function"
    },
    {
      "inputs": [
        {
          "internalType": "bytes32",
          "name": "role",
          "type": "bytes32"
        },
        {
          "internalType": "address",
          "name": "account",
          "type": "address"
        }
      ],
      "name": "hasRole",
      "outputs": [
        {
          "internalType": "bool",
          "name": "",
          "type": "bool"
        }
      ],
      "stateMutability": "view",
      "type": "function"
    },
    {
      "inputs": [
        {
          "internalType": "address",
          "name": "_minter",
          "type": "address"
        },
        {
          "internalType": "uint256",
          "name": "_amount",
          "type": "uint256"
        }
      ],
      "name": "increaseAllowance",
      "outputs": [],
      "stateMutability": "nonpayable",
      "type": "function"
    },
    {
      "inputs": [
        {
          "internalType": "address",
          "name": "owner",
          "type": "address"
        },
        {
          "internalType": "address",
          "name": "operator",
          "type": "address"
        }
      ],
      "name": "isApprovedForAll",
      "outputs": [
        {
          "internalType": "bool",
          "name": "",
          "type": "bool"
        }
      ],
      "stateMutability": "view",
      "type": "function"
    },
    {
      "inputs": [
        {
          "internalType": "address",
          "name": "_account",
          "type": "address"
        }
      ],
      "name": "isMinter",
      "outputs": [
        {
          "internalType": "bool",
          "name": "",
          "type": "bool"
        }
      ],
      "stateMutability": "view",
      "type": "function"
    },
    {
      "inputs": [
        {
          "internalType": "address",
          "name": "_account",
          "type": "address"
        },
        {
          "internalType": "uint256",
          "name": "_tokenId",
          "type": "uint256"
        }
      ],
      "name": "mint",
      "outputs": [],
      "stateMutability": "nonpayable",
      "type": "function"
    },
    {
      "inputs": [
        {
          "internalType": "address",
          "name": "_account",
          "type": "address"
        }
      ],
      "name": "mint",
      "outputs": [
        {
          "internalType": "uint256",
          "name": "newTokenId",
          "type": "uint256"
        }
      ],
      "stateMutability": "nonpayable",
      "type": "function"
    },
    {
      "inputs": [
        {
          "internalType": "address",
          "name": "_account",
          "type": "address"
        },
        {
          "internalType": "uint256",
          "name": "_amount",
          "type": "uint256"
        }
      ],
      "name": "mintBatch",
      "outputs": [],
      "stateMutability": "nonpayable",
      "type": "function"
    },
    {
      "inputs": [
        {
          "internalType": "address",
          "name": "_account",
          "type": "address"
        },
        {
          "internalType": "uint256[]",
          "name": "_tokenIds",
          "type": "uint256[]"
        }
      ],
      "name": "mintBatch",
      "outputs": [],
      "stateMutability": "nonpayable",
      "type": "function"
    },
    {
      "inputs": [
        {
          "internalType": "address",
          "name": "",
          "type": "address"
        }
      ],
      "name": "minterAllowances",
      "outputs": [
        {
          "internalType": "uint256",
          "name": "",
          "type": "uint256"
        }
      ],
      "stateMutability": "view",
      "type": "function"
    },
    {
      "inputs": [],
      "name": "name",
      "outputs": [
        {
          "internalType": "string",
          "name": "",
          "type": "string"
        }
      ],
      "stateMutability": "view",
      "type": "function"
    },
    {
      "inputs": [],
      "name": "owner",
      "outputs": [
        {
          "internalType": "address",
          "name": "",
          "type": "address"
        }
      ],
      "stateMutability": "view",
      "type": "function"
    },
    {
      "inputs": [
        {
          "internalType": "uint256",
          "name": "tokenId",
          "type": "uint256"
        }
      ],
      "name": "ownerOf",
      "outputs": [
        {
          "internalType": "address",
          "name": "",
          "type": "address"
        }
      ],
      "stateMutability": "view",
      "type": "function"
    },
    {
      "inputs": [],
      "name": "pause",
      "outputs": [],
      "stateMutability": "nonpayable",
      "type": "function"
    },
    {
      "inputs": [],
      "name": "paused",
      "outputs": [
        {
          "internalType": "bool",
          "name": "",
          "type": "bool"
        }
      ],
      "stateMutability": "view",
      "type": "function"
    },
    {
      "inputs": [
        {
          "internalType": "address[]",
          "name": "_accounts",
          "type": "address[]"
        }
      ],
      "name": "removeBlacklist",
      "outputs": [],
      "stateMutability": "nonpayable",
      "type": "function"
    },
    {
      "inputs": [
        {
          "internalType": "address",
          "name": "_account",
          "type": "address"
        }
      ],
      "name": "removeMinter",
      "outputs": [],
      "stateMutability": "nonpayable",
      "type": "function"
    },
    {
      "inputs": [],
      "name": "renounceOwnership",
      "outputs": [],
      "stateMutability": "nonpayable",
      "type": "function"
    },
    {
      "inputs": [
        {
          "internalType": "bytes32",
          "name": "role",
          "type": "bytes32"
        },
        {
          "internalType": "address",
          "name": "account",
          "type": "address"
        }
      ],
      "name": "renounceRole",
      "outputs": [],
      "stateMutability": "nonpayable",
      "type": "function"
    },
    {
      "inputs": [
        {
          "internalType": "uint256",
          "name": "_tokenId",
          "type": "uint256"
        }
      ],
      "name": "resetTokenRoyalty",
      "outputs": [],
      "stateMutability": "nonpayable",
      "type": "function"
    },
    {
      "inputs": [
        {
          "internalType": "bytes32",
          "name": "role",
          "type": "bytes32"
        },
        {
          "internalType": "address",
          "name": "account",
          "type": "address"
        }
      ],
      "name": "revokeRole",
      "outputs": [],
      "stateMutability": "nonpayable",
      "type": "function"
    },
    {
      "inputs": [
        {
          "internalType": "uint256",
          "name": "_tokenId",
          "type": "uint256"
        },
        {
          "internalType": "uint256",
          "name": "_salePrice",
          "type": "uint256"
        }
      ],
      "name": "royaltyInfo",
      "outputs": [
        {
          "internalType": "address",
          "name": "",
          "type": "address"
        },
        {
          "internalType": "uint256",
          "name": "",
          "type": "uint256"
        }
      ],
      "stateMutability": "view",
      "type": "function"
    },
    {
      "inputs": [
        {
          "internalType": "address",
          "name": "from",
          "type": "address"
        },
        {
          "internalType": "address",
          "name": "to",
          "type": "address"
        },
        {
          "internalType": "uint256",
          "name": "tokenId",
          "type": "uint256"
        }
      ],
      "name": "safeTransferFrom",
      "outputs": [],
      "stateMutability": "nonpayable",
      "type": "function"
    },
    {
      "inputs": [
        {
          "internalType": "address",
          "name": "from",
          "type": "address"
        },
        {
          "internalType": "address",
          "name": "to",
          "type": "address"
        },
        {
          "internalType": "uint256",
          "name": "tokenId",
          "type": "uint256"
        },
        {
          "internalType": "bytes",
          "name": "data",
          "type": "bytes"
        }
      ],
      "name": "safeTransferFrom",
      "outputs": [],
      "stateMutability": "nonpayable",
      "type": "function"
    },
    {
      "inputs": [
        {
          "internalType": "address",
          "name": "operator",
          "type": "address"
        },
        {
          "internalType": "bool",
          "name": "approved",
          "type": "bool"
        }
      ],
      "name": "setApprovalForAll",
      "outputs": [],
      "stateMutability": "nonpayable",
      "type": "function"
    },
    {
      "inputs": [
        {
          "internalType": "string",
          "name": "_baseTokenURI",
          "type": "string"
        }
      ],
      "name": "setBaseTokenURI",
      "outputs": [],
      "stateMutability": "nonpayable",
      "type": "function"
    },
    {
      "inputs": [
        {
          "internalType": "address",
          "name": "_receiver",
          "type": "address"
        },
        {
          "internalType": "uint96",
          "name": "_feeNumerator",
          "type": "uint96"
        }
      ],
      "name": "setDefaultRoyalty",
      "outputs": [],
      "stateMutability": "nonpayable",
      "type": "function"
    },
    {
      "inputs": [
        {
          "internalType": "uint256",
          "name": "_tokenId",
          "type": "uint256"
        },
        {
          "internalType": "address",
          "name": "_receiver",
          "type": "address"
        },
        {
          "internalType": "uint96",
          "name": "_feeNumerator",
          "type": "uint96"
        }
      ],
      "name": "setTokenRoyalty",
      "outputs": [],
      "stateMutability": "nonpayable",
      "type": "function"
    },
    {
      "inputs": [
        {
          "internalType": "uint256",
          "name": "tokenId",
          "type": "uint256"
        },
        {
          "internalType": "address",
          "name": "user",
          "type": "address"
        },
        {
          "internalType": "uint64",
          "name": "expires",
          "type": "uint64"
        }
      ],
      "name": "setUser",
      "outputs": [],
      "stateMutability": "nonpayable",
      "type": "function"
    },
    {
      "inputs": [
        {
          "internalType": "bytes4",
          "name": "_interfaceId",
          "type": "bytes4"
        }
      ],
      "name": "supportsInterface",
      "outputs": [
        {
          "internalType": "bool",
          "name": "",
          "type": "bool"
        }
      ],
      "stateMutability": "view",
      "type": "function"
    },
    {
      "inputs": [],
      "name": "symbol",
      "outputs": [
        {
          "internalType": "string",
          "name": "",
          "type": "string"
        }
      ],
      "stateMutability": "view",
      "type": "function"
    },
    {
      "inputs": [
        {
          "internalType": "uint256",
          "name": "index",
          "type": "uint256"
        }
      ],
      "name": "tokenByIndex",
      "outputs": [
        {
          "internalType": "uint256",
          "name": "",
          "type": "uint256"
        }
      ],
      "stateMutability": "view",
      "type": "function"
    },
    {
      "inputs": [],
      "name": "tokenId",
      "outputs": [
        {
          "internalType": "uint256",
          "name": "",
          "type": "uint256"
        }
      ],
      "stateMutability": "view",
      "type": "function"
    },
    {
      "inputs": [
        {
          "internalType": "address",
          "name": "owner",
          "type": "address"
        },
        {
          "internalType": "uint256",
          "name": "index",
          "type": "uint256"
        }
      ],
      "name": "tokenOfOwnerByIndex",
      "outputs": [
        {
          "internalType": "uint256",
          "name": "",
          "type": "uint256"
        }
      ],
      "stateMutability": "view",
      "type": "function"
    },
    {
      "inputs": [
        {
          "internalType": "uint256",
          "name": "tokenId",
          "type": "uint256"
        }
      ],
      "name": "tokenURI",
      "outputs": [
        {
          "internalType": "string",
          "name": "",
          "type": "string"
        }
      ],
      "stateMutability": "view",
      "type": "function"
    },
    {
      "inputs": [],
      "name": "totalSupply",
      "outputs": [
        {
          "internalType": "uint256",
          "name": "",
          "type": "uint256"
        }
      ],
      "stateMutability": "view",
      "type": "function"
    },
    {
      "inputs": [
        {
          "internalType": "address",
          "name": "from",
          "type": "address"
        },
        {
          "internalType": "address",
          "name": "to",
          "type": "address"
        },
        {
          "internalType": "uint256",
          "name": "tokenId",
          "type": "uint256"
        }
      ],
      "name": "transferFrom",
      "outputs": [],
      "stateMutability": "nonpayable",
      "type": "function"
    },
    {
      "inputs": [
        {
          "internalType": "address",
          "name": "_newOwner",
          "type": "address"
        }
      ],
      "name": "transferOwnership",
      "outputs": [],
      "stateMutability": "nonpayable",
      "type": "function"
    },
    {
      "inputs": [],
      "name": "unpause",
      "outputs": [],
      "stateMutability": "nonpayable",
      "type": "function"
    },
    {
      "inputs": [
        {
          "internalType": "uint256",
          "name": "tokenId",
          "type": "uint256"
        }
      ],
      "name": "userExpires",
      "outputs": [
        {
          "internalType": "uint256",
          "name": "",
          "type": "uint256"
        }
      ],
      "stateMutability": "view",
      "type": "function"
    },
    {
      "inputs": [
        {
          "internalType": "uint256",
          "name": "tokenId",
          "type": "uint256"
        }
      ],
      "name": "userOf",
      "outputs": [
        {
          "internalType": "address",
          "name": "",
          "type": "address"
        }
      ],
      "stateMutability": "view",
      "type": "function"
    }
  ],
  "bytecode": "0x60806040523480156200001157600080fd5b5060405162003ad738038062003ad7833981016040819052620000349162000365565b838381818160009080519060200190620000509291906200020c565b508051620000669060019060208401906200020c565b505050620000836200007d6200010260201b60201c565b62000106565b50506010805460ff19169055620000a860003362000158602090811b620017c017901c565b620000df7f9f2df0fed2c77648de5860a4cc508cd0818c85b8b8a1ab4ceeef8d981c8956a6336200015860201b620017c01760201c565b8151620000f49060129060208501906200020c565b50601355506200044d915050565b3390565b600b80546001600160a01b038381166001600160a01b0319831681179093556040519116919082907f8be0079c531659141344cd1fd0a4f28419497f9722a3daafe3b4186f6b6457e090600090a35050565b62000164828262000168565b5050565b6000828152600a602090815260408083206001600160a01b038516845290915290205460ff1662000164576000828152600a602090815260408083206001600160a01b03851684529091529020805460ff19166001179055620001c83390565b6001600160a01b0316816001600160a01b0316837f2f8788117e7eff1d82e926ec794901d17c78024a50270940304540a733656f0d60405160405180910390a45050565b8280546200021a90620003fa565b90600052602060002090601f0160209004810192826200023e576000855562000289565b82601f106200025957805160ff191683800117855562000289565b8280016001018555821562000289579182015b82811115620002895782518255916020019190600101906200026c565b50620002979291506200029b565b5090565b5b808211156200029757600081556001016200029c565b600082601f830112620002c3578081fd5b81516001600160401b0380821115620002e057620002e062000437565b604051601f8301601f19908116603f011681019082821181831017156200030b576200030b62000437565b8160405283815260209250868385880101111562000327578485fd5b8491505b838210156200034a57858201830151818301840152908201906200032b565b838211156200035b57848385830101525b9695505050505050565b600080600080608085870312156200037b578384fd5b84516001600160401b038082111562000392578586fd5b620003a088838901620002b2565b95506020870151915080821115620003b6578485fd5b620003c488838901620002b2565b94506040870151915080821115620003da578384fd5b50620003e987828801620002b2565b606096909601519497939650505050565b600181811c908216806200040f57607f821691505b602082108114156200043157634e487b7160e01b600052602260045260246000fd5b50919050565b634e487b7160e01b600052604160045260246000fd5b61367a806200045d6000396000f3fe608060405234801561001057600080fd5b50600436106102e25760003560e01c80636a62784211610188578063a22cb465116100e4578063d539139311610092578063d539139314610692578063d547741f146106a7578063d547cfb7146106ba578063e030565e146106c2578063e985e9c5146106d5578063f2fde38b146106e8578063f9f92be4146106fb57600080fd5b8063a22cb46514610618578063a457c2d71461062b578063aa1b103f1461063e578063aa271e1a14610646578063b88d4fde14610659578063c2f1f14a1461066c578063c87b56dd1461067f57600080fd5b80638a616bc0116101415780638a616bc0146105975780638da5cb5b146105aa5780638fc88c48146105b257806391d14854146105e257806395d89b41146105f5578063983b2d56146105fd578063a217fddf1461061057600080fd5b80636a6278421461053b57806370a082311461054e578063715018a61461056157806375ceb341146105695780637911ef9d1461057c5780638456cb591461058f57600080fd5b80632f745c591161024257806340c10f19116101f057806340c10f19146104be57806342842e0e146104d157806342966c68146104e45780634f6ccce7146104f75780635944c7531461050a5780635c975abb1461051d5780636352211e1461052857600080fd5b80632f745c591461044457806330176e13146104575780633092afd51461046a57806336568abe1461047d57806339509351146104905780633d2cc56c146104a35780633f4ba83a146104b657600080fd5b806317d70f7c1161029f57806317d70f7c146103a557806318160ddd146103ae57806323b872dd146103b6578063248a9ca3146103c9578063248b71fc146103ec5780632a55205a146103ff5780632f2ff15d1461043157600080fd5b806301ffc9a7146102e757806304634d8d1461030f57806306fdde0314610324578063081812fc14610339578063090858c914610364578063095ea7b314610392575b600080fd5b6102fa6102f536600461306d565b61071e565b60405190151581526020015b60405180910390f35b61032261031d366004612fcb565b61072f565b005b61032c610745565b604051610306919061334e565b61034c610347366004613033565b6107d7565b6040516001600160a01b039091168152602001610306565b610384610372366004612e19565b60116020526000908152604090205481565b604051908152602001610306565b6103226103a0366004612fa2565b6107fe565b61038460135481565b600854610384565b6103226103c4366004612e65565b610919565b6103846103d7366004613033565b6000908152600a602052604090206001015490565b6103226103fa366004612fa2565b61094b565b61041261040d36600461316f565b610a00565b604080516001600160a01b039093168352602083019190915201610306565b61032261043f36600461304b565b610aae565b610384610452366004612fa2565b610ad3565b6103226104653660046130a5565b610b69565b610322610478366004612e19565b610c2d565b61032261048b36600461304b565b610c84565b61032261049e366004612fa2565b610cfe565b6103226104b1366004612ff4565b610e12565b610322610f04565b6103226104cc366004612fa2565b610f16565b6103226104df366004612e65565b610fac565b6103226104f2366004613033565b610fc7565b610384610505366004613033565b610ffe565b610322610518366004613134565b61109f565b60105460ff166102fa565b61034c610536366004613033565b6110b2565b610384610549366004612e19565b6110e7565b61038461055c366004612e19565b61118d565b610322611213565b610322610577366004612f18565b611225565b61032261058a366004612ff4565b61131c565b610322611405565b6103226105a5366004613033565b611415565b61034c611431565b6103846105c0366004613033565b6000908152600f6020526040902054600160a01b90046001600160401b031690565b6102fa6105f036600461304b565b611440565b61032c61146b565b61032261060b366004612e19565b61147a565b610384600081565b610322610626366004612f68565b6114f8565b610322610639366004612fa2565b611503565b610322611515565b6102fa610654366004612e19565b611527565b610322610667366004612ea0565b611541565b61034c61067a366004613033565b611579565b61032c61068d366004613033565b6115c8565b6103846000805160206135e583398151915281565b6103226106b536600461304b565b61162f565b61032c611654565b6103226106d03660046130ea565b6116e2565b6102fa6106e3366004612e33565b611789565b6103226106f6366004612e19565b6117b7565b6102fa610709366004612e19565b600c6020526000908152604090205460ff1681565b6000610729826117ca565b92915050565b6107376117ef565b610741828261184e565b5050565b60606000805461075490613522565b80601f016020809104026020016040519081016040528092919081815260200182805461078090613522565b80156107cd5780601f106107a2576101008083540402835291602001916107cd565b820191906000526020600020905b8154815290600101906020018083116107b057829003601f168201915b5050505050905090565b60006107e282611904565b506000908152600460205260409020546001600160a01b031690565b6000610809826110b2565b9050806001600160a01b0316836001600160a01b0316141561087c5760405162461bcd60e51b815260206004820152602160248201527f4552433732313a20617070726f76616c20746f2063757272656e74206f776e656044820152603960f91b60648201526084015b60405180910390fd5b336001600160a01b038216148061089857506108988133611789565b61090a5760405162461bcd60e51b815260206004820152603e60248201527f4552433732313a20617070726f76652063616c6c6572206973206e6f7420746f60448201527f6b656e206f776e6572206e6f7220617070726f76656420666f7220616c6c00006064820152608401610873565b6109148383611938565b505050565b610924335b826119a6565b6109405760405162461bcd60e51b81526004016108739061342f565b610914838383611a05565b6109636000805160206135e583398151915233611440565b61098057604051632f2fb5f760e11b815260040160405180910390fd5b338161098a611431565b6001600160a01b0316826001600160a01b0316146109ac576109ac8282611b9a565b60005b838110156109f95760138054600101908190556109cc8682611c90565b60405181906001600160a01b0388169060008051602061362583398151915290600090a3506001016109af565b5050505050565b6000828152600e602090815260408083208151808301909252546001600160a01b038116808352600160a01b9091046001600160601b0316928201929092528291610a75575060408051808201909152600d546001600160a01b0381168252600160a01b90046001600160601b031660208201525b602081015160009061271090610a94906001600160601b0316876134a9565b610a9e9190613495565b91519350909150505b9250929050565b6000828152600a6020526040902060010154610ac981611dcc565b6109148383611dd6565b6000610ade8361118d565b8210610b405760405162461bcd60e51b815260206004820152602b60248201527f455243373231456e756d657261626c653a206f776e657220696e646578206f7560448201526a74206f6620626f756e647360a81b6064820152608401610873565b506001600160a01b03919091166000908152600660209081526040808320938352929052205490565b610b716117ef565b6012604051602001610b839190613207565b6040516020818303038152906040528051906020012081604051602001610baa91906131bc565b604051602081830303815290604052805190602001201415610bdf576040516395ef0ed360e01b815260040160405180910390fd5b8051610bf2906012906020840190612c9b565b507f52adf9069ac028f7d3af36ce02291f5eca1f10741bef7e1d6a77a11cb0a8dc4a81604051610c22919061334e565b60405180910390a150565b610c356117ef565b610c4d6000805160206135e583398151915282611e5c565b6040516001600160a01b038216907f4f2e45736bb0b7476bb1aaf6ee5b6f4ae1783384c4f707a4158e14d64d7eda0490600090a250565b6001600160a01b0381163314610cf45760405162461bcd60e51b815260206004820152602f60248201527f416363657373436f6e74726f6c3a2063616e206f6e6c792072656e6f756e636560448201526e103937b632b9903337b91039b2b63360891b6064820152608401610873565b6107418282611e5c565b610d066117ef565b816001600160a01b0381161580610d355750610d20611431565b6001600160a01b0316816001600160a01b0316145b15610d535760405163e6c4247b60e01b815260040160405180910390fd5b8180610d725760405163162908e360e11b815260040160405180910390fd5b6001600160a01b038416600090815260116020526040902054610d97846000196134c8565b811115610db757604051634eab2ea760e11b815260040160405180910390fd5b6001600160a01b0385166000818152601160209081526040918290208785019081905591519182527f7725a5a6a2dcc572cc7e9fd3b7d98b5196c61d901f7b267ac3fccf742446038c91015b60405180910390a25050505050565b610e1a6117ef565b60005b81811015610914576001600c6000858585818110610e4b57634e487b7160e01b600052603260045260246000fd5b9050602002016020810190610e609190612e19565b6001600160a01b031681526020810191909152604001600020805460ff1916911515919091179055828282818110610ea857634e487b7160e01b600052603260045260246000fd5b9050602002016020810190610ebd9190612e19565b6001600160a01b03167f06d7264a634570514702abae1f1064ad0e927e91b28bf4c3876b224f0d1c8c5060405160405180910390a280610efc8161355d565b915050610e1d565b610f0c6117ef565b610f14611ec3565b565b610f2e6000805160206135e583398151915233611440565b610f4b57604051632f2fb5f760e11b815260040160405180910390fd5b336001610f56611431565b6001600160a01b0316826001600160a01b031614610f7857610f788282611b9a565b610f828484611c90565b60405183906001600160a01b0386169060008051602061362583398151915290600090a350505050565b61091483838360405180602001604052806000815250611541565b610fd081611f15565b60405181907fbbd33c80ca6014947fc51f39e655c86b289dc2e0366abe766de7c49f7ac38ec590600090a250565b600061100960085490565b821061106c5760405162461bcd60e51b815260206004820152602c60248201527f455243373231456e756d657261626c653a20676c6f62616c20696e646578206f60448201526b7574206f6620626f756e647360a01b6064820152608401610873565b6008828154811061108d57634e487b7160e01b600052603260045260246000fd5b90600052602060002001549050919050565b6110a76117ef565b610914838383611f43565b6000818152600260205260408120546001600160a01b0316806107295760405162461bcd60e51b8152600401610873906133b3565b60006111016000805160206135e583398151915233611440565b61111e57604051632f2fb5f760e11b815260040160405180910390fd5b336001611129611431565b6001600160a01b0316826001600160a01b03161461114b5761114b8282611b9a565b601380546001019081905592506111628484611c90565b60405183906001600160a01b0386169060008051602061362583398151915290600090a35050919050565b60006001600160a01b0382166111f75760405162461bcd60e51b815260206004820152602960248201527f4552433732313a2061646472657373207a65726f206973206e6f7420612076616044820152683634b21037bbb732b960b91b6064820152608401610873565b506001600160a01b031660009081526003602052604090205490565b61121b6117ef565b610f14600061200e565b61123d6000805160206135e583398151915233611440565b61125a57604051632f2fb5f760e11b815260040160405180910390fd5b3381611264611431565b6001600160a01b0316826001600160a01b031614611286576112868282611b9a565b60005b83811015611314576112c1868686848181106112b557634e487b7160e01b600052603260045260246000fd5b90506020020135611c90565b8484828181106112e157634e487b7160e01b600052603260045260246000fd5b90506020020135866001600160a01b031660008051602061362583398151915260405160405180910390a3600101611289565b505050505050565b6113246117ef565b60005b8181101561091457600c600084848481811061135357634e487b7160e01b600052603260045260246000fd5b90506020020160208101906113689190612e19565b6001600160a01b031681526020810191909152604001600020805460ff191690558282828181106113a957634e487b7160e01b600052603260045260246000fd5b90506020020160208101906113be9190612e19565b6001600160a01b03167fab27c2488b8bf99b135e8d45ae652f3eac0cc651e5ae27aeec366c3f547fc3eb60405160405180910390a2806113fd8161355d565b915050611327565b61140d6117ef565b610f14612060565b61141d6117ef565b6000908152600e6020526040812055565b50565b600b546001600160a01b031690565b6000918252600a602090815260408084206001600160a01b0393909316845291905290205460ff1690565b60606001805461075490613522565b6114826117ef565b6001600160a01b0381166114a95760405163e6c4247b60e01b815260040160405180910390fd5b6114c16000805160206135e583398151915282611dd6565b6040516001600160a01b038216907ff520dd67ceedf317bc1fd6202af56f22510a422039748e1dc927ad4f5dcfd51c90600090a250565b61074133838361209d565b61150b6117ef565b6107418282611b9a565b61151d6117ef565b610f146000600d55565b60006107296000805160206135e583398151915283611440565b61154b33836119a6565b6115675760405162461bcd60e51b81526004016108739061342f565b61157384848484612169565b50505050565b6000818152600f602052604081205442600160a01b9091046001600160401b0316106115bb57506000908152600f60205260409020546001600160a01b031690565b506000919050565b919050565b60606115d382611904565b60006115dd61219c565b905060008151116115fd5760405180602001604052806000815250611628565b80611607846121ab565b6040516020016116189291906131d8565b6040516020818303038152906040525b9392505050565b6000828152600a602052604090206001015461164a81611dcc565b6109148383611e5c565b6012805461166190613522565b80601f016020809104026020016040519081016040528092919081815260200182805461168d90613522565b80156116da5780601f106116af576101008083540402835291602001916116da565b820191906000526020600020905b8154815290600101906020018083116116bd57829003601f168201915b505050505081565b6116ec33846119a6565b6117095760405163096dcfe360e31b815260040160405180910390fd5b6000838152600f602090815260409182902080546001600160a01b0386166001600160e01b03199091168117600160a01b6001600160401b03871690810291909117835593519384529092909186917f4e06b4e7000e659094299b3533b47b6aa8ad048e95e872d23d1f4ee55af89cfe910160405180910390a350505050565b6001600160a01b03918216600090815260056020908152604080832093909416825291909152205460ff1690565b61142e816122c4565b6107418282611dd6565b60006001600160e01b03198216632b424ad760e21b148061072957506107298261231f565b336117f8611431565b6001600160a01b031614610f145760405162461bcd60e51b815260206004820181905260248201527f4f776e61626c653a2063616c6c6572206973206e6f7420746865206f776e65726044820152606401610873565b6127106001600160601b03821611156118795760405162461bcd60e51b8152600401610873906133e5565b6001600160a01b0382166118cb5760405162461bcd60e51b815260206004820152601960248201527822a921991c9c189d1034b73b30b634b2103932b1b2b4bb32b960391b6044820152606401610873565b604080518082019091526001600160a01b039092168083526001600160601b039091166020909201829052600160a01b90910217600d55565b6000818152600260205260409020546001600160a01b031661142e5760405162461bcd60e51b8152600401610873906133b3565b600081815260046020526040902080546001600160a01b0319166001600160a01b038416908117909155819061196d826110b2565b6001600160a01b03167f8c5be1e5ebec7d5bd14f71427d1e84f3dd0314c0f7b2291e5b200ac8c7c3b92560405160405180910390a45050565b6000806119b2836110b2565b9050806001600160a01b0316846001600160a01b031614806119d957506119d98185611789565b806119fd5750836001600160a01b03166119f2846107d7565b6001600160a01b0316145b949350505050565b826001600160a01b0316611a18826110b2565b6001600160a01b031614611a7c5760405162461bcd60e51b815260206004820152602560248201527f4552433732313a207472616e736665722066726f6d20696e636f72726563742060448201526437bbb732b960d91b6064820152608401610873565b6001600160a01b038216611ade5760405162461bcd60e51b8152602060048201526024808201527f4552433732313a207472616e7366657220746f20746865207a65726f206164646044820152637265737360e01b6064820152608401610873565b611ae9838383612344565b611af4600082611938565b6001600160a01b0383166000908152600360205260408120805460019290611b1d9084906134c8565b90915550506001600160a01b0382166000908152600360205260408120805460019290611b4b90849061347d565b909155505060008181526002602052604080822080546001600160a01b0319166001600160a01b03868116918217909255915184939187169160008051602061360583398151915291a4505050565b816001600160a01b0381161580611bc95750611bb4611431565b6001600160a01b0316816001600160a01b0316145b15611be75760405163e6c4247b60e01b815260040160405180910390fd5b8180611c065760405163162908e360e11b815260040160405180910390fd5b6001600160a01b03841660009081526011602052604090205480841115611c4057604051639ad9961560e01b815260040160405180910390fd5b6001600160a01b0385166000818152601160209081526040918290208785039081905591519182527f605a20fc7fea65689efcc6ca97774a40683030ec299f05c73bde65636e3199dd9101610e03565b6001600160a01b038216611ce65760405162461bcd60e51b815260206004820181905260248201527f4552433732313a206d696e7420746f20746865207a65726f20616464726573736044820152606401610873565b6000818152600260205260409020546001600160a01b031615611d4b5760405162461bcd60e51b815260206004820152601c60248201527f4552433732313a20746f6b656e20616c7265616479206d696e746564000000006044820152606401610873565b611d5760008383612344565b6001600160a01b0382166000908152600360205260408120805460019290611d8090849061347d565b909155505060008181526002602052604080822080546001600160a01b0319166001600160a01b0386169081179091559051839290600080516020613605833981519152908290a45050565b61142e813361236d565b611de08282611440565b610741576000828152600a602090815260408083206001600160a01b03851684529091529020805460ff19166001179055611e183390565b6001600160a01b0316816001600160a01b0316837f2f8788117e7eff1d82e926ec794901d17c78024a50270940304540a733656f0d60405160405180910390a45050565b611e668282611440565b15610741576000828152600a602090815260408083206001600160a01b0385168085529252808320805460ff1916905551339285917ff6391f5c32d9c69d2a47ea670b442974b53935d1edc7fd64eb21e047a839171b9190a45050565b611ecb6123d1565b6010805460ff191690557f5db9ee0a495bf2e6ff9c91a7834c1ba4fdd244a5e8aa4e537bd38aeae4b073aa335b6040516001600160a01b03909116815260200160405180910390a1565b611f1e3361091e565b611f3a5760405162461bcd60e51b81526004016108739061342f565b61142e8161241a565b6127106001600160601b0382161115611f6e5760405162461bcd60e51b8152600401610873906133e5565b6001600160a01b038216611fc45760405162461bcd60e51b815260206004820152601b60248201527f455243323938313a20496e76616c696420706172616d657465727300000000006044820152606401610873565b6040805180820182526001600160a01b0393841681526001600160601b0392831660208083019182526000968752600e90529190942093519051909116600160a01b029116179055565b600b80546001600160a01b038381166001600160a01b0319831681179093556040519116919082907f8be0079c531659141344cd1fd0a4f28419497f9722a3daafe3b4186f6b6457e090600090a35050565b6120686124af565b6010805460ff191660011790557f62e78cea01bee320cd4e420270b5ea74000d11b0c9f74754ebdbfc544b05a258611ef83390565b816001600160a01b0316836001600160a01b031614156120fb5760405162461bcd60e51b815260206004820152601960248201527822a9219b99189d1030b8383937bb32903a379031b0b63632b960391b6044820152606401610873565b6001600160a01b03838116600081815260056020908152604080832094871680845294825291829020805460ff191686151590811790915591519182527f17307eab39ab6107e8899845ad3d59bd9653f200f220920489ca2b5937696c3191015b60405180910390a3505050565b612174848484611a05565b612180848484846124f5565b6115735760405162461bcd60e51b815260040161087390613361565b60606012805461075490613522565b6060816121cf5750506040805180820190915260018152600360fc1b602082015290565b8160005b81156121f957806121e38161355d565b91506121f29050600a83613495565b91506121d3565b6000816001600160401b0381111561222157634e487b7160e01b600052604160045260246000fd5b6040519080825280601f01601f19166020018201604052801561224b576020820181803683370190505b5090505b84156119fd576122606001836134c8565b915061226d600a86613578565b61227890603061347d565b60f81b81838151811061229b57634e487b7160e01b600052603260045260246000fd5b60200101906001600160f81b031916908160001a9053506122bd600a86613495565b945061224f565b60006122ce611431565b90506122db600082611e5c565b6122f36000805160206135e583398151915282611e5c565b6122fe600083611dd6565b6123166000805160206135e583398151915283611dd6565b61074182612602565b60006001600160e01b0319821663152a902d60e11b1480610729575061072982612678565b61234c6124af565b61235783838361269d565b61236283838361273e565b6109148383836127f6565b6123778282611440565b6107415761238f816001600160a01b0316601461288b565b61239a83602061288b565b6040516020016123ab9291906132a2565b60408051601f198184030181529082905262461bcd60e51b82526108739160040161334e565b60105460ff16610f145760405162461bcd60e51b815260206004820152601460248201527314185d5cd8589b194e881b9bdd081c185d5cd95960621b6044820152606401610873565b6000612425826110b2565b905061243381600084612344565b61243e600083611938565b6001600160a01b03811660009081526003602052604081208054600192906124679084906134c8565b909155505060008281526002602052604080822080546001600160a01b0319169055518391906001600160a01b03841690600080516020613605833981519152908390a45050565b60105460ff1615610f145760405162461bcd60e51b815260206004820152601060248201526f14185d5cd8589b194e881c185d5cd95960821b6044820152606401610873565b60006001600160a01b0384163b156125f757604051630a85bd0160e11b81526001600160a01b0385169063150b7a0290612539903390899088908890600401613311565b602060405180830381600087803b15801561255357600080fd5b505af1925050508015612583575060408051601f3d908101601f1916820190925261258091810190613089565b60015b6125dd573d8080156125b1576040519150601f19603f3d011682016040523d82523d6000602084013e6125b6565b606091505b5080516125d55760405162461bcd60e51b815260040161087390613361565b805181602001fd5b6001600160e01b031916630a85bd0160e11b1490506119fd565b506001949350505050565b61260a6117ef565b6001600160a01b03811661266f5760405162461bcd60e51b815260206004820152602660248201527f4f776e61626c653a206e6577206f776e657220697320746865207a65726f206160448201526564647265737360d01b6064820152608401610873565b61142e8161200e565b60006001600160e01b03198216637965db0b60e01b1480610729575061072982612a6c565b6001600160a01b0383166000908152600c602052604090205460ff161580156126df57506001600160a01b0382166000908152600c602052604090205460ff16155b6109145760405162461bcd60e51b815260206004820152602a60248201527f455243373231426c61636b6c69737465643a20544f4b454e5f5452414e5346456044820152691497d11254d05093115160b21b6064820152608401610873565b6001600160a01b0383166127995761279481600880546000838152600960205260408120829055600182018355919091527ff3f7a9fe364faab93b216da50a3214154f22a0a2b415b23a84c8169e8b636ee30155565b6127bc565b816001600160a01b0316836001600160a01b0316146127bc576127bc8382612a91565b6001600160a01b0382166127d35761091481612b2e565b826001600160a01b0316826001600160a01b031614610914576109148282612c07565b61280183838361269d565b816001600160a01b0316836001600160a01b03161415801561283957506000818152600f60205260409020546001600160a01b031615155b15610914576000818152600f6020908152604080832080546001600160e01b03191690555182815283917f4e06b4e7000e659094299b3533b47b6aa8ad048e95e872d23d1f4ee55af89cfe910161215c565b6060600061289a8360026134a9565b6128a590600261347d565b6001600160401b038111156128ca57634e487b7160e01b600052604160045260246000fd5b6040519080825280601f01601f1916602001820160405280156128f4576020820181803683370190505b509050600360fc1b8160008151811061291d57634e487b7160e01b600052603260045260246000fd5b60200101906001600160f81b031916908160001a905350600f60fb1b8160018151811061295a57634e487b7160e01b600052603260045260246000fd5b60200101906001600160f81b031916908160001a905350600061297e8460026134a9565b61298990600161347d565b90505b6001811115612a1d576f181899199a1a9b1b9c1cb0b131b232b360811b85600f16601081106129cb57634e487b7160e01b600052603260045260246000fd5b1a60f81b8282815181106129ef57634e487b7160e01b600052603260045260246000fd5b60200101906001600160f81b031916908160001a90535060049490941c93612a168161350b565b905061298c565b5083156116285760405162461bcd60e51b815260206004820181905260248201527f537472696e67733a20686578206c656e67746820696e73756666696369656e746044820152606401610873565b60006001600160e01b0319821663780e9d6360e01b1480610729575061072982612c4b565b60006001612a9e8461118d565b612aa891906134c8565b600083815260076020526040902054909150808214612afb576001600160a01b03841660009081526006602090815260408083208584528252808320548484528184208190558352600790915290208190555b5060009182526007602090815260408084208490556001600160a01b039094168352600681528383209183525290812055565b600854600090612b40906001906134c8565b60008381526009602052604081205460088054939450909284908110612b7657634e487b7160e01b600052603260045260246000fd5b906000526020600020015490508060088381548110612ba557634e487b7160e01b600052603260045260246000fd5b6000918252602080832090910192909255828152600990915260408082208490558582528120556008805480612beb57634e487b7160e01b600052603160045260246000fd5b6001900381819060005260206000200160009055905550505050565b6000612c128361118d565b6001600160a01b039093166000908152600660209081526040808320868452825280832085905593825260079052919091209190915550565b60006001600160e01b031982166380ac58cd60e01b1480612c7c57506001600160e01b03198216635b5e139f60e01b145b8061072957506301ffc9a760e01b6001600160e01b0319831614610729565b828054612ca790613522565b90600052602060002090601f016020900481019282612cc95760008555612d0f565b82601f10612ce257805160ff1916838001178555612d0f565b82800160010185558215612d0f579182015b82811115612d0f578251825591602001919060010190612cf4565b50612d1b929150612d1f565b5090565b5b80821115612d1b5760008155600101612d20565b60006001600160401b0380841115612d4e57612d4e6135b8565b604051601f8501601f19908116603f01168101908282118183101715612d7657612d766135b8565b81604052809350858152868686011115612d8f57600080fd5b858560208301376000602087830101525050509392505050565b80356001600160a01b03811681146115c357600080fd5b60008083601f840112612dd1578081fd5b5081356001600160401b03811115612de7578182fd5b6020830191508360208260051b8501011115610aa757600080fd5b80356001600160601b03811681146115c357600080fd5b600060208284031215612e2a578081fd5b61162882612da9565b60008060408385031215612e45578081fd5b612e4e83612da9565b9150612e5c60208401612da9565b90509250929050565b600080600060608486031215612e79578081fd5b612e8284612da9565b9250612e9060208501612da9565b9150604084013590509250925092565b60008060008060808587031215612eb5578081fd5b612ebe85612da9565b9350612ecc60208601612da9565b92506040850135915060608501356001600160401b03811115612eed578182fd5b8501601f81018713612efd578182fd5b612f0c87823560208401612d34565b91505092959194509250565b600080600060408486031215612f2c578283fd5b612f3584612da9565b925060208401356001600160401b03811115612f4f578283fd5b612f5b86828701612dc0565b9497909650939450505050565b60008060408385031215612f7a578182fd5b612f8383612da9565b915060208301358015158114612f97578182fd5b809150509250929050565b60008060408385031215612fb4578182fd5b612fbd83612da9565b946020939093013593505050565b60008060408385031215612fdd578182fd5b612fe683612da9565b9150612e5c60208401612e02565b60008060208385031215613006578182fd5b82356001600160401b0381111561301b578283fd5b61302785828601612dc0565b90969095509350505050565b600060208284031215613044578081fd5b5035919050565b6000806040838503121561305d578182fd5b82359150612e5c60208401612da9565b60006020828403121561307e578081fd5b8135611628816135ce565b60006020828403121561309a578081fd5b8151611628816135ce565b6000602082840312156130b6578081fd5b81356001600160401b038111156130cb578182fd5b8201601f810184136130db578182fd5b6119fd84823560208401612d34565b6000806000606084860312156130fe578081fd5b8335925061310e60208501612da9565b915060408401356001600160401b0381168114613129578182fd5b809150509250925092565b600080600060608486031215613148578081fd5b8335925061315860208501612da9565b915061316660408501612e02565b90509250925092565b60008060408385031215613181578182fd5b50508035926020909101359150565b600081518084526131a88160208601602086016134df565b601f01601f19169290920160200192915050565b600082516131ce8184602087016134df565b9190910192915050565b600083516131ea8184602088016134df565b8351908301906131fe8183602088016134df565b01949350505050565b600080835482600182811c91508083168061322357607f831692505b602080841082141561324357634e487b7160e01b87526022600452602487fd5b818015613257576001811461326857613294565b60ff19861689528489019650613294565b60008a815260209020885b8681101561328c5781548b820152908501908301613273565b505084890196505b509498975050505050505050565b76020b1b1b2b9b9a1b7b73a3937b61d1030b1b1b7bab73a1604d1b8152600083516132d48160178501602088016134df565b7001034b99036b4b9b9b4b733903937b6329607d1b60179184019182015283516133058160288401602088016134df565b01602801949350505050565b6001600160a01b038581168252841660208201526040810183905260806060820181905260009061334490830184613190565b9695505050505050565b6020815260006116286020830184613190565b60208082526032908201527f4552433732313a207472616e7366657220746f206e6f6e20455243373231526560408201527131b2b4bb32b91034b6b83632b6b2b73a32b960711b606082015260800190565b602080825260189082015277115490cdcc8c4e881a5b9d985b1a59081d1bdad95b88125160421b604082015260600190565b6020808252602a908201527f455243323938313a20726f79616c7479206665652077696c6c206578636565646040820152692073616c65507269636560b01b606082015260800190565b6020808252602e908201527f4552433732313a2063616c6c6572206973206e6f7420746f6b656e206f776e6560408201526d1c881b9bdc88185c1c1c9bdd995960921b606082015260800190565b600082198211156134905761349061358c565b500190565b6000826134a4576134a46135a2565b500490565b60008160001904831182151516156134c3576134c361358c565b500290565b6000828210156134da576134da61358c565b500390565b60005b838110156134fa5781810151838201526020016134e2565b838111156115735750506000910152565b60008161351a5761351a61358c565b506000190190565b600181811c9082168061353657607f821691505b6020821081141561355757634e487b7160e01b600052602260045260246000fd5b50919050565b60006000198214156135715761357161358c565b5060010190565b600082613587576135876135a2565b500690565b634e487b7160e01b600052601160045260246000fd5b634e487b7160e01b600052601260045260246000fd5b634e487b7160e01b600052604160045260246000fd5b6001600160e01b03198116811461142e57600080fdfe9f2df0fed2c77648de5860a4cc508cd0818c85b8b8a1ab4ceeef8d981c8956a6ddf252ad1be2c89b69c2b068fc378daa952ba7f163c4a11628f55a4df523b3ef4b07bcb4c1790f8b1732bc94384c7dbda81e9aee73f8ebf57e100b3f6a8e99eea2646970667358221220b175ea1ed2249dea4fc4d2c683f85f7633efddb62302880e41d8c2ecd529502f64736f6c63430008040033",
  "linkReferences": {},
  "deployedLinkReferences": {}
}