{
  "_format": "hh-sol-artifact-1",
  "contractName": "GamePortal",
  "sourceName": "contracts/GamePortal.sol",
  "abi": [
    {
      "inputs": [
        {
          "internalType": "address",
          "name": "_signer",
          "type": "address"
        }
      ],
      "stateMutability": "nonpayable",
      "type": "constructor"
    },
    {
      "inputs": [],
      "name": "EmptyArray",
      "type": "error"
    },
    {
      "inputs": [],
      "name": "InvalidAddress",
      "type": "error"
    },
    {
      "inputs": [],
      "name": "InvalidAmount",
      "type": "error"
    },
    {
      "inputs": [],
      "name": "InvalidSignature",
      "type": "error"
    },
    {
      "inputs": [],
      "name": "NFTNotLocked",
      "type": "error"
    },
    {
      "inputs": [],
      "name": "NoChangeToTheState",
      "type": "error"
    },
    {
      "inputs": [],
      "name": "NotAcceptedERC1155",
      "type": "error"
    },
    {
      "inputs": [],
      "name": "NotAcceptedERC20",
      "type": "error"
    },
    {
      "inputs": [],
      "name": "NotAcceptedERC721",
      "type": "error"
    },
    {
      "inputs": [],
      "name": "NotContract",
      "type": "error"
    },
    {
      "anonymous": false,
      "inputs": [
        {
          "indexed": true,
          "internalType": "contract Asset",
          "name": "asset",
          "type": "address"
        },
        {
          "indexed": false,
          "internalType": "uint256",
          "name": "newTokenId",
          "type": "uint256"
        }
      ],
      "name": "LogAssetCrafted",
      "type": "event"
    },
    {
      "anonymous": false,
      "inputs": [
        {
          "indexed": true,
          "internalType": "contract Asset",
          "name": "asset",
          "type": "address"
        },
        {
          "indexed": false,
          "internalType": "uint256",
          "name": "tokenId0",
          "type": "uint256"
        },
        {
          "indexed": false,
          "internalType": "uint256",
          "name": "tokenId1",
          "type": "uint256"
        },
        {
          "indexed": false,
          "internalType": "uint256",
          "name": "newTokenId",
          "type": "uint256"
        }
      ],
      "name": "LogAssetMerged",
      "type": "event"
    },
    {
      "anonymous": false,
      "inputs": [
        {
          "indexed": true,
          "internalType": "address",
          "name": "operator",
          "type": "address"
        },
        {
          "indexed": true,
          "internalType": "address",
          "name": "from",
          "type": "address"
        },
        {
          "indexed": false,
          "internalType": "uint256[]",
          "name": "ids",
          "type": "uint256[]"
        },
        {
          "indexed": false,
          "internalType": "uint256[]",
          "name": "values",
          "type": "uint256[]"
        },
        {
          "indexed": false,
          "internalType": "bytes",
          "name": "data",
          "type": "bytes"
        }
      ],
      "name": "LogERC1155BatchReceived",
      "type": "event"
    },
    {
      "anonymous": false,
      "inputs": [
        {
          "indexed": true,
          "internalType": "contract IERC1155",
          "name": "token",
          "type": "address"
        },
        {
          "indexed": false,
          "internalType": "uint256",
          "name": "tokenId",
          "type": "uint256"
        },
        {
          "indexed": false,
          "internalType": "uint256",
          "name": "amount",
          "type": "uint256"
        },
        {
          "indexed": true,
          "internalType": "address",
          "name": "account",
          "type": "address"
        }
      ],
      "name": "LogERC1155Deposited",
      "type": "event"
    },
    {
      "anonymous": false,
      "inputs": [
        {
          "indexed": true,
          "internalType": "address",
          "name": "operator",
          "type": "address"
        },
        {
          "indexed": true,
          "internalType": "address",
          "name": "from",
          "type": "address"
        },
        {
          "indexed": false,
          "internalType": "uint256",
          "name": "id",
          "type": "uint256"
        },
        {
          "indexed": false,
          "internalType": "uint256",
          "name": "value",
          "type": "uint256"
        },
        {
          "indexed": false,
          "internalType": "bytes",
          "name": "data",
          "type": "bytes"
        }
      ],
      "name": "LogERC1155Received",
      "type": "event"
    },
    {
      "anonymous": false,
      "inputs": [
        {
          "indexed": true,
          "internalType": "contract IERC1155",
          "name": "token",
          "type": "address"
        },
        {
          "indexed": false,
          "internalType": "uint256",
          "name": "tokenId",
          "type": "uint256"
        },
        {
          "indexed": false,
          "internalType": "uint256",
          "name": "amount",
          "type": "uint256"
        },
        {
          "indexed": true,
          "internalType": "address",
          "name": "account",
          "type": "address"
        }
      ],
      "name": "LogERC1155Withdrawn",
      "type": "event"
    },
    {
      "anonymous": false,
      "inputs": [
        {
          "indexed": true,
          "internalType": "contract IERC20",
          "name": "token",
          "type": "address"
        },
        {
          "indexed": false,
          "internalType": "uint256",
          "name": "amount",
          "type": "uint256"
        },
        {
          "indexed": true,
          "internalType": "address",
          "name": "account",
          "type": "address"
        }
      ],
      "name": "LogERC20Deposited",
      "type": "event"
    },
    {
      "anonymous": false,
      "inputs": [
        {
          "indexed": true,
          "internalType": "contract IERC20",
          "name": "token",
          "type": "address"
        },
        {
          "indexed": false,
          "internalType": "uint256",
          "name": "amount",
          "type": "uint256"
        },
        {
          "indexed": true,
          "internalType": "address",
          "name": "account",
          "type": "address"
        }
      ],
      "name": "LogERC20Withdrawn",
      "type": "event"
    },
    {
      "anonymous": false,
      "inputs": [
        {
          "indexed": true,
          "internalType": "contract IERC721",
          "name": "token",
          "type": "address"
        },
        {
          "indexed": false,
          "internalType": "uint256",
          "name": "tokenId",
          "type": "uint256"
        },
        {
          "indexed": true,
          "internalType": "address",
          "name": "account",
          "type": "address"
        }
      ],
      "name": "LogERC721Deposited",
      "type": "event"
    },
    {
      "anonymous": false,
      "inputs": [
        {
          "indexed": true,
          "internalType": "address",
          "name": "operator",
          "type": "address"
        },
        {
          "indexed": true,
          "internalType": "address",
          "name": "from",
          "type": "address"
        },
        {
          "indexed": false,
          "internalType": "uint256",
          "name": "tokenId",
          "type": "uint256"
        },
        {
          "indexed": false,
          "internalType": "bytes",
          "name": "data",
          "type": "bytes"
        }
      ],
      "name": "LogERC721Received",
      "type": "event"
    },
    {
      "anonymous": false,
      "inputs": [
        {
          "indexed": true,
          "internalType": "contract IERC721",
          "name": "token",
          "type": "address"
        },
        {
          "indexed": false,
          "internalType": "uint256",
          "name": "tokenId",
          "type": "uint256"
        },
        {
          "indexed": true,
          "internalType": "address",
          "name": "account",
          "type": "address"
        }
      ],
      "name": "LogERC721Withdrawn",
      "type": "event"
    },
    {
      "anonymous": false,
      "inputs": [
        {
          "indexed": false,
          "internalType": "address",
          "name": "signer",
          "type": "address"
        }
      ],
      "name": "LogSignerSet",
      "type": "event"
    },
    {
      "anonymous": false,
      "inputs": [
        {
          "indexed": true,
          "internalType": "address",
          "name": "token",
          "type": "address"
        },
        {
          "components": [
            {
              "internalType": "bool",
              "name": "erc20",
              "type": "bool"
            },
            {
              "internalType": "bool",
              "name": "erc721",
              "type": "bool"
            },
            {
              "internalType": "bool",
              "name": "erc1155",
              "type": "bool"
            }
          ],
          "indexed": false,
          "internalType": "struct GamePortal.Accepted",
          "name": "accepted",
          "type": "tuple"
        }
      ],
      "name": "LogTokenAcceptanceSet",
      "type": "event"
    },
    {
      "anonymous": false,
      "inputs": [
        {
          "indexed": true,
          "internalType": "address",
          "name": "previousOwner",
          "type": "address"
        },
        {
          "indexed": true,
          "internalType": "address",
          "name": "newOwner",
          "type": "address"
        }
      ],
      "name": "OwnershipTransferred",
      "type": "event"
    },
    {
      "anonymous": false,
      "inputs": [
        {
          "indexed": false,
          "internalType": "address",
          "name": "account",
          "type": "address"
        }
      ],
      "name": "Paused",
      "type": "event"
    },
    {
      "anonymous": false,
      "inputs": [
        {
          "indexed": false,
          "internalType": "address",
          "name": "account",
          "type": "address"
        }
      ],
      "name": "Unpaused",
      "type": "event"
    },
    {
      "inputs": [
        {
          "internalType": "address",
          "name": "",
          "type": "address"
        }
      ],
      "name": "accepted",
      "outputs": [
        {
          "internalType": "bool",
          "name": "erc20",
          "type": "bool"
        },
        {
          "internalType": "bool",
          "name": "erc721",
          "type": "bool"
        },
        {
          "internalType": "bool",
          "name": "erc1155",
          "type": "bool"
        }
      ],
      "stateMutability": "view",
      "type": "function"
    },
    {
      "inputs": [
        {
          "internalType": "contract Asset",
          "name": "_asset",
          "type": "address"
        },
        {
          "internalType": "uint256",
          "name": "_tokenId",
          "type": "uint256"
        }
      ],
      "name": "burnAsset",
      "outputs": [],
      "stateMutability": "nonpayable",
      "type": "function"
    },
    {
      "inputs": [
        {
          "internalType": "contract Asset",
          "name": "_asset",
          "type": "address"
        },
        {
          "internalType": "uint256[]",
          "name": "_tokenIds",
          "type": "uint256[]"
        }
      ],
      "name": "burnBatchAsset",
      "outputs": [],
      "stateMutability": "nonpayable",
      "type": "function"
    },
    {
      "inputs": [
        {
          "internalType": "contract Asset",
          "name": "_asset",
          "type": "address"
        },
        {
          "internalType": "contract Resource",
          "name": "_resource",
          "type": "address"
        },
        {
          "internalType": "contract Currency",
          "name": "_currency",
          "type": "address"
        },
        {
          "internalType": "uint256[]",
          "name": "_tokenIds",
          "type": "uint256[]"
        },
        {
          "internalType": "uint256[]",
          "name": "_amounts",
          "type": "uint256[]"
        },
        {
          "internalType": "uint256",
          "name": "_currencyAmount",
          "type": "uint256"
        }
      ],
      "name": "craftAsset",
      "outputs": [],
      "stateMutability": "nonpayable",
      "type": "function"
    },
    {
      "inputs": [
        {
          "internalType": "contract Resource",
          "name": "_resource",
          "type": "address"
        },
        {
          "internalType": "uint256",
          "name": "_amount",
          "type": "uint256"
        }
      ],
      "name": "createResource",
      "outputs": [],
      "stateMutability": "nonpayable",
      "type": "function"
    },
    {
      "inputs": [
        {
          "internalType": "contract IERC1155",
          "name": "_token",
          "type": "address"
        },
        {
          "internalType": "uint256",
          "name": "_tokenId",
          "type": "uint256"
        },
        {
          "internalType": "uint256",
          "name": "_amount",
          "type": "uint256"
        },
        {
          "internalType": "bytes",
          "name": "_sig",
          "type": "bytes"
        }
      ],
      "name": "depositERC1155",
      "outputs": [],
      "stateMutability": "nonpayable",
      "type": "function"
    },
    {
      "inputs": [
        {
          "internalType": "contract IERC20",
          "name": "_token",
          "type": "address"
        },
        {
          "internalType": "uint256",
          "name": "_amount",
          "type": "uint256"
        },
        {
          "internalType": "bytes",
          "name": "_sig",
          "type": "bytes"
        }
      ],
      "name": "depositERC20",
      "outputs": [],
      "stateMutability": "nonpayable",
      "type": "function"
    },
    {
      "inputs": [
        {
          "internalType": "contract IERC721",
          "name": "_token",
          "type": "address"
        },
        {
          "internalType": "uint256",
          "name": "_tokenId",
          "type": "uint256"
        },
        {
          "internalType": "bytes",
          "name": "_sig",
          "type": "bytes"
        }
      ],
      "name": "depositERC721",
      "outputs": [],
      "stateMutability": "nonpayable",
      "type": "function"
    },
    {
      "inputs": [
        {
          "internalType": "contract Asset",
          "name": "_asset",
          "type": "address"
        },
        {
          "internalType": "uint256",
          "name": "_tokenId0",
          "type": "uint256"
        },
        {
          "internalType": "uint256",
          "name": "_tokenId1",
          "type": "uint256"
        }
      ],
      "name": "mergeAsset",
      "outputs": [],
      "stateMutability": "nonpayable",
      "type": "function"
    },
    {
      "inputs": [
        {
          "internalType": "contract Asset",
          "name": "_asset",
          "type": "address"
        },
        {
          "internalType": "address",
          "name": "_account",
          "type": "address"
        }
      ],
      "name": "mintAsset",
      "outputs": [],
      "stateMutability": "nonpayable",
      "type": "function"
    },
    {
      "inputs": [
        {
          "internalType": "contract Asset",
          "name": "_asset",
          "type": "address"
        },
        {
          "internalType": "address",
          "name": "_account",
          "type": "address"
        },
        {
          "internalType": "uint256",
          "name": "_amount",
          "type": "uint256"
        }
      ],
      "name": "mintBatchAsset",
      "outputs": [],
      "stateMutability": "nonpayable",
      "type": "function"
    },
    {
      "inputs": [
        {
          "internalType": "contract Resource",
          "name": "_resource",
          "type": "address"
        },
        {
          "internalType": "address",
          "name": "_account",
          "type": "address"
        },
        {
          "internalType": "uint256[]",
          "name": "_tokenIds",
          "type": "uint256[]"
        },
        {
          "internalType": "uint256[]",
          "name": "_amounts",
          "type": "uint256[]"
        }
      ],
      "name": "mintBatchResource",
      "outputs": [],
      "stateMutability": "nonpayable",
      "type": "function"
    },
    {
      "inputs": [
        {
          "internalType": "address",
          "name": "",
          "type": "address"
        }
      ],
      "name": "nonces",
      "outputs": [
        {
          "internalType": "uint256",
          "name": "",
          "type": "uint256"
        }
      ],
      "stateMutability": "view",
      "type": "function"
    },
    {
      "inputs": [
        {
          "internalType": "address",
          "name": "_operator",
          "type": "address"
        },
        {
          "internalType": "address",
          "name": "_from",
          "type": "address"
        },
        {
          "internalType": "uint256[]",
          "name": "_ids",
          "type": "uint256[]"
        },
        {
          "internalType": "uint256[]",
          "name": "_values",
          "type": "uint256[]"
        },
        {
          "internalType": "bytes",
          "name": "_data",
          "type": "bytes"
        }
      ],
      "name": "onERC1155BatchReceived",
      "outputs": [
        {
          "internalType": "bytes4",
          "name": "",
          "type": "bytes4"
        }
      ],
      "stateMutability": "nonpayable",
      "type": "function"
    },
    {
      "inputs": [
        {
          "internalType": "address",
          "name": "_operator",
          "type": "address"
        },
        {
          "internalType": "address",
          "name": "_from",
          "type": "address"
        },
        {
          "internalType": "uint256",
          "name": "_id",
          "type": "uint256"
        },
        {
          "internalType": "uint256",
          "name": "_value",
          "type": "uint256"
        },
        {
          "internalType": "bytes",
          "name": "_data",
          "type": "bytes"
        }
      ],
      "name": "onERC1155Received",
      "outputs": [
        {
          "internalType": "bytes4",
          "name": "",
          "type": "bytes4"
        }
      ],
      "stateMutability": "nonpayable",
      "type": "function"
    },
    {
      "inputs": [
        {
          "internalType": "address",
          "name": "_operator",
          "type": "address"
        },
        {
          "internalType": "address",
          "name": "_from",
          "type": "address"
        },
        {
          "internalType": "uint256",
          "name": "_tokenId",
          "type": "uint256"
        },
        {
          "internalType": "bytes",
          "name": "_data",
          "type": "bytes"
        }
      ],
      "name": "onERC721Received",
      "outputs": [
        {
          "internalType": "bytes4",
          "name": "",
          "type": "bytes4"
        }
      ],
      "stateMutability": "nonpayable",
      "type": "function"
    },
    {
      "inputs": [],
      "name": "owner",
      "outputs": [
        {
          "internalType": "address",
          "name": "",
          "type": "address"
        }
      ],
      "stateMutability": "view",
      "type": "function"
    },
    {
      "inputs": [],
      "name": "pause",
      "outputs": [],
      "stateMutability": "nonpayable",
      "type": "function"
    },
    {
      "inputs": [],
      "name": "paused",
      "outputs": [
        {
          "internalType": "bool",
          "name": "",
          "type": "bool"
        }
      ],
      "stateMutability": "view",
      "type": "function"
    },
    {
      "inputs": [],
      "name": "renounceOwnership",
      "outputs": [],
      "stateMutability": "nonpayable",
      "type": "function"
    },
    {
      "inputs": [
        {
          "internalType": "address",
          "name": "_signer",
          "type": "address"
        }
      ],
      "name": "setSigner",
      "outputs": [],
      "stateMutability": "nonpayable",
      "type": "function"
    },
    {
      "inputs": [
        {
          "internalType": "address",
          "name": "_token",
          "type": "address"
        },
        {
          "components": [
            {
              "internalType": "bool",
              "name": "erc20",
              "type": "bool"
            },
            {
              "internalType": "bool",
              "name": "erc721",
              "type": "bool"
            },
            {
              "internalType": "bool",
              "name": "erc1155",
              "type": "bool"
            }
          ],
          "internalType": "struct GamePortal.Accepted",
          "name": "_accepted",
          "type": "tuple"
        }
      ],
      "name": "setTokenAcceptance",
      "outputs": [],
      "stateMutability": "nonpayable",
      "type": "function"
    },
    {
      "inputs": [],
      "name": "signer",
      "outputs": [
        {
          "internalType": "address",
          "name": "",
          "type": "address"
        }
      ],
      "stateMutability": "view",
      "type": "function"
    },
    {
      "inputs": [
        {
          "internalType": "bytes4",
          "name": "_interfaceId",
          "type": "bytes4"
        }
      ],
      "name": "supportsInterface",
      "outputs": [
        {
          "internalType": "bool",
          "name": "",
          "type": "bool"
        }
      ],
      "stateMutability": "view",
      "type": "function"
    },
    {
      "inputs": [
        {
          "internalType": "address",
          "name": "newOwner",
          "type": "address"
        }
      ],
      "name": "transferOwnership",
      "outputs": [],
      "stateMutability": "nonpayable",
      "type": "function"
    },
    {
      "inputs": [],
      "name": "unpause",
      "outputs": [],
      "stateMutability": "nonpayable",
      "type": "function"
    },
    {
      "inputs": [
        {
          "internalType": "contract IERC1155",
          "name": "_token",
          "type": "address"
        },
        {
          "internalType": "uint256",
          "name": "_tokenId",
          "type": "uint256"
        },
        {
          "internalType": "uint256",
          "name": "_amount",
          "type": "uint256"
        },
        {
          "internalType": "bytes",
          "name": "_sig",
          "type": "bytes"
        }
      ],
      "name": "withdrawERC1155",
      "outputs": [],
      "stateMutability": "nonpayable",
      "type": "function"
    },
    {
      "inputs": [
        {
          "internalType": "contract IERC1155",
          "name": "_token",
          "type": "address"
        },
        {
          "internalType": "uint256[]",
          "name": "_tokenIds",
          "type": "uint256[]"
        },
        {
          "internalType": "uint256[]",
          "name": "_amounts",
          "type": "uint256[]"
        },
        {
          "internalType": "bytes",
          "name": "_sig",
          "type": "bytes"
        }
      ],
      "name": "withdrawERC1155Batch",
      "outputs": [],
      "stateMutability": "nonpayable",
      "type": "function"
    },
    {
      "inputs": [
        {
          "internalType": "contract IERC20",
          "name": "_token",
          "type": "address"
        },
        {
          "internalType": "uint256",
          "name": "_amount",
          "type": "uint256"
        },
        {
          "internalType": "bytes",
          "name": "_sig",
          "type": "bytes"
        }
      ],
      "name": "withdrawERC20",
      "outputs": [],
      "stateMutability": "nonpayable",
      "type": "function"
    },
    {
      "inputs": [
        {
          "internalType": "contract IERC721",
          "name": "_token",
          "type": "address"
        },
        {
          "internalType": "uint256",
          "name": "_tokenId",
          "type": "uint256"
        },
        {
          "internalType": "bytes",
          "name": "_sig",
          "type": "bytes"
        }
      ],
      "name": "withdrawERC721",
      "outputs": [],
      "stateMutability": "nonpayable",
      "type": "function"
    },
    {
      "inputs": [
        {
          "internalType": "contract IERC721",
          "name": "_token",
          "type": "address"
        },
        {
          "internalType": "uint256[]",
          "name": "_tokenIds",
          "type": "uint256[]"
        },
        {
          "internalType": "bytes",
          "name": "_sig",
          "type": "bytes"
        }
      ],
      "name": "withdrawERC721Batch",
      "outputs": [],
      "stateMutability": "nonpayable",
      "type": "function"
    }
  ],
  "bytecode": "0x60806040523480156200001157600080fd5b50604051620035c0380380620035c0833981016040819052620000349162000193565b80620000403362000060565b6000805460ff60a01b191690556200005881620000b0565b5050620001c3565b600080546001600160a01b038381166001600160a01b0319831681178455604051919092169283917f8be0079c531659141344cd1fd0a4f28419497f9722a3daafe3b4186f6b6457e09190a35050565b6001546001600160a01b0382811691161415620000e0576040516395ef0ed360e01b815260040160405180910390fd5b6001600160a01b038116158062000111575062000111816001600160a01b03166200018460201b62001d761760201c565b15620001305760405163e6c4247b60e01b815260040160405180910390fd5b600180546001600160a01b0319166001600160a01b0383169081179091556040519081527f0e0e80fd67025937b2e06916c487df53d79b7bfe21bb07f93aa1ea8360bbde169060200160405180910390a150565b6001600160a01b03163b151590565b600060208284031215620001a5578081fd5b81516001600160a01b0381168114620001bc578182fd5b9392505050565b6133ed80620001d36000396000f3fe608060405234801561001057600080fd5b50600436106101a55760003560e01c80637ecebe00116100ef578063bed8ae7b11610092578063bed8ae7b146103cb578063bf658578146103de578063cacfaa22146103f1578063dd9af84f14610404578063e3342ac314610417578063f23a6e611461042a578063f2fde38b1461043d578063f4b9a2381461045057600080fd5b80637ecebe00146103255780638456cb59146103535780638da5cb5b1461035b578063955f7aa41461036c578063a1538bde1461037f578063a20f485d14610392578063b4f6ce39146103a5578063bc197c81146103b857600080fd5b80633f4ba83a116101575780633f4ba83a146102ae57806343432ebd146102b65780634b1f1850146102c957806355beca7e146102dc5780635c975abb146102ef57806366a8dacc146102f75780636c19e7831461030a578063715018a61461031d57600080fd5b806301ffc9a7146101aa57806306d784a8146101d2578063150b7a02146101e75780631df76eaf14610213578063238ac933146102265780632b34af70146102465780633471cfbb1461029b575b600080fd5b6101bd6101b8366004612b34565b610463565b60405190151581526020015b60405180910390f35b6101e56101e0366004612ad9565b61049a565b005b6101fa6101f53660046129f0565b61053d565b6040516001600160e01b031990911681526020016101c9565b6101e5610221366004612e7b565b6105a0565b600154610239906001600160a01b031681565b6040516101c991906130ed565b61027c6102543660046128fe565b60036020526000908152604090205460ff808216916101008104821691620100009091041683565b60408051931515845291151560208401521515908201526060016101c9565b6101e56102a9366004612e22565b6106e7565b6101e561088d565b6101e56102c4366004612cfc565b61089f565b6101e56102d7366004612e22565b610bb9565b6101e56102ea366004612e22565b610cf7565b6101bd610ed2565b6101e5610305366004612cd1565b610ee2565b6101e56103183660046128fe565b610f90565b6101e5610fa4565b6103456103333660046128fe565b60026020526000908152604090205481565b6040519081526020016101c9565b6101e5610fb6565b6000546001600160a01b0316610239565b6101e561037a366004612b5c565b610fc6565b6101e561038d366004612dd8565b611097565b6101e56103a0366004612b94565b6111e2565b6101e56103b3366004612d30565b6112ad565b6101fa6103c6366004612936565b611419565b6101e56103d9366004612ee9565b611485565b6101e56103ec366004612e22565b611542565b6101e56103ff366004612dd8565b6116e0565b6101e5610412366004612bd4565b6118b4565b6101e5610425366004612c26565b6119c3565b6101fa610438366004612a60565b611c1a565b6101e561044b3660046128fe565b611c80565b6101e561045e366004612cd1565b611cfb565b60006001600160e01b03198216630a85bd0160e11b148061049457506001600160e01b03198216630271189760e51b145b92915050565b6104a2611d85565b6104b4826001600160a01b0316611d76565b6104d157604051636f7c43f160e01b815260040160405180910390fd5b6001600160a01b038216600090815260036020526040902081906104f58282613324565b905050816001600160a01b03167f523a2e2740ab57c112b6e8379135fba42045f2a1561b2700037a3f8427015e7482604051610531919061321d565b60405180910390a25050565b6000846001600160a01b0316866001600160a01b03167f2fa9b6520f6a4ed70d9b9bbae41fba2a214e9d6dd35754938192c45071fb23a786868660405161058693929190613262565b60405180910390a350630a85bd0160e11b95945050505050565b6105a8611ddf565b6001600160a01b038516600090815260036020526040902054610100900460ff166105e657604051634642ba6d60e01b815260040160405180910390fd5b60004633600081815260026020526040812080548a938a938a93919261060b906132f3565b918290555060405161062596959493929190602001613024565b60405160208183030381529060405280519060200120905061067d8184848080601f016020809104026020016040519081016040528093929190818152602001838380828437600092019190915250611e2792505050565b61069a57604051638baa579f60e01b815260040160405180910390fd5b60005b848110156106de576106d6878787848181106106c957634e487b7160e01b600052603260045260246000fd5b9050602002013533611eac565b60010161069d565b50505050505050565b6106ef611ddf565b6001600160a01b03841660009081526003602052604090205460ff166107285760405163be41ad2560e01b815260040160405180910390fd5b826107465760405163162908e360e11b815260040160405180910390fd5b60004633600081815260026020526040812080548993899390929161076a906132f3565b91829055506040516c07769746864726177455243323609c1b6020820152602d8101959095526001600160601b0319606094851b8116604d8701526061860193909352921b166081830152609582015260b5016040516020818303038152906040528051906020012090506108158184848080601f016020809104026020016040519081016040528093929190818152602001838380828437600092019190915250611e2792505050565b61083257604051638baa579f60e01b815260040160405180910390fd5b60405184815233906001600160a01b038716907ffa0f578bda144a995611e6ad17732bac387fb5f04b9987676803c8c7a3adfc9e9060200160405180910390a36108866001600160a01b0386163386611f29565b5050505050565b610895611d85565b61089d611f8c565b565b6108a7611d85565b6108af611ddf565b6001600160a01b038316600090815260036020526040902054610100900460ff166108ed57604051634642ba6d60e01b815260040160405180910390fd5b6040516331a9108f60e11b81526004810183905230906001600160a01b03851690636352211e9060240160206040518083038186803b15801561092f57600080fd5b505afa158015610943573d6000803e3d6000fd5b505050506040513d601f19601f82011682018060405250810190610967919061291a565b6001600160a01b03161461098e57604051630c0144e560e11b815260040160405180910390fd5b6040516331a9108f60e11b81526004810182905230906001600160a01b03851690636352211e9060240160206040518083038186803b1580156109d057600080fd5b505afa1580156109e4573d6000803e3d6000fd5b505050506040513d601f19601f82011682018060405250810190610a08919061291a565b6001600160a01b031614610a2f57604051630c0144e560e11b815260040160405180910390fd5b604051630852cd8d60e31b8152600481018390526001600160a01b038416906342966c6890602401600060405180830381600087803b158015610a7157600080fd5b505af1158015610a85573d6000803e3d6000fd5b5050604051630852cd8d60e31b8152600481018490526001600160a01b03861692506342966c689150602401600060405180830381600087803b158015610acb57600080fd5b505af1158015610adf573d6000803e3d6000fd5b50506040516335313c2160e11b8152600092506001600160a01b0386169150636a62784290610b129030906004016130ed565b602060405180830381600087803b158015610b2c57600080fd5b505af1158015610b40573d6000803e3d6000fd5b505050506040513d601f19601f82011682018060405250810190610b649190612f68565b60408051858152602081018590529081018290529091506001600160a01b038516907fe65a0487f6b35e5cb59603b64cdf9edc12b63d151c84b2144d89cf5613994ae39060600160405180910390a250505050565b610bc1611ddf565b6001600160a01b038416600090815260036020526040902054610100900460ff16610bff57604051634642ba6d60e01b815260040160405180910390fd5b600046336000818152600260205260408120805489938993909291610c23906132f3565b91829055506040516d776974686472617745524337323160901b6020820152602e8101959095526001600160601b0319606094851b8116604e8701526062860193909352921b166082830152609682015260b601604051602081830303815290604052805190602001209050610ccf8184848080601f016020809104026020016040519081016040528093929190818152602001838380828437600092019190915250611e2792505050565b610cec57604051638baa579f60e01b815260040160405180910390fd5b610886858533611eac565b610cff611ddf565b6001600160a01b038416600090815260036020526040902054610100900460ff16610d3d57604051634642ba6d60e01b815260040160405180910390fd5b600046336000818152600260205260408120805489938993909291610d61906132f3565b91829055506040516c6465706f73697445524337323160981b6020820152602d8101959095526001600160601b0319606094851b8116604d8701526061860193909352921b166081830152609582015260b501604051602081830303815290604052805190602001209050610e0c8184848080601f016020809104026020016040519081016040528093929190818152602001838380828437600092019190915250611e2792505050565b610e2957604051638baa579f60e01b815260040160405180910390fd5b60405184815233906001600160a01b038716907f41db60f0d38eb44cd92b1a9e72cd6c3464714d7a7da57e821d0b190456563ee29060200160405180910390a3604051632142170760e11b81526001600160a01b038616906342842e0e90610e9990339030908990600401613101565b600060405180830381600087803b158015610eb357600080fd5b505af1158015610ec7573d6000803e3d6000fd5b505050505050505050565b600054600160a01b900460ff1690565b610eea611d85565b610ef2611ddf565b6001600160a01b03821660009081526003602052604090205462010000900460ff16610f3157604051630182f5dd60e51b815260040160405180910390fd5b604051631e02403760e21b8152600481018290526001600160a01b0383169063780900dc906024015b600060405180830381600087803b158015610f7457600080fd5b505af1158015610f88573d6000803e3d6000fd5b505050505050565b610f98611d85565b610fa181611fdb565b50565b610fac611d85565b61089d60006120a1565b610fbe611d85565b61089d6120f1565b610fce611d85565b610fd6611ddf565b6001600160a01b038216600090815260036020526040902054610100900460ff1661101457604051634642ba6d60e01b815260040160405180910390fd5b6040516335313c2160e11b81526001600160a01b03831690636a627842906110409084906004016130ed565b602060405180830381600087803b15801561105a57600080fd5b505af115801561106e573d6000803e3d6000fd5b505050506040513d601f19601f820116820180604052508101906110929190612f68565b505050565b61109f611ddf565b6001600160a01b03851660009081526003602052604090205462010000900460ff166110de57604051630182f5dd60e51b815260040160405180910390fd5b60004633600081815260026020526040812080548a938a938a939192611103906132f3565b91829055506040516e77697468647261774552433131353560881b6020820152602f8101969096526001600160601b0319606095861b8116604f8801526063870194909452608386019290925290921b1660a383015260b782015260d7016040516020818303038152906040528051906020012090506111b98184848080601f016020809104026020016040519081016040528093929190818152602001838380828437600092019190915250611e2792505050565b6111d657604051638baa579f60e01b815260040160405180910390fd5b610f8886868633612134565b6111ea611d85565b6111f2611ddf565b6001600160a01b038316600090815260036020526040902054610100900460ff1661123057604051634642ba6d60e01b815260040160405180910390fd5b8061124e5760405163162908e360e11b815260040160405180910390fd5b604051630922dc7f60e21b81526001600160a01b0383811660048301526024820183905284169063248b71fc906044015b600060405180830381600087803b15801561129957600080fd5b505af11580156106de573d6000803e3d6000fd5b6112b5611ddf565b6001600160a01b03871660009081526003602052604090205462010000900460ff166112f457604051630182f5dd60e51b815260040160405180910390fd5b60004633600081815260026020526040812080548c938c938c938c938c93929061131d906132f3565b9182905550604051611339989796959493929190602001613082565b6040516020818303038152906040528051906020012090506113918184848080601f016020809104026020016040519081016040528093929190818152602001838380828437600092019190915250611e2792505050565b6113ae57604051638baa579f60e01b815260040160405180910390fd5b60005b86811015610ec757611411898989848181106113dd57634e487b7160e01b600052603260045260246000fd5b9050602002013588888581811061140457634e487b7160e01b600052603260045260246000fd5b9050602002013533612134565b6001016113b1565b6000876001600160a01b0316896001600160a01b03167fd49aa95889a62341db550618e2565ac233011464798ef2c7a179f6f572a8a66e898989898989604051611468969594939291906131a1565b60405180910390a35063bc197c8160e01b98975050505050505050565b61148d611d85565b611495611ddf565b6001600160a01b03861660009081526003602052604090205462010000900460ff166114d457604051630182f5dd60e51b815260040160405180910390fd5b60405163d81d0a1560e01b81526001600160a01b0387169063d81d0a1590611508908890889088908890889060040161315d565b600060405180830381600087803b15801561152257600080fd5b505af1158015611536573d6000803e3d6000fd5b50505050505050505050565b61154a611ddf565b6001600160a01b03841660009081526003602052604090205460ff166115835760405163be41ad2560e01b815260040160405180910390fd5b826115a15760405163162908e360e11b815260040160405180910390fd5b6000463360008181526002602052604081208054899389939092916115c5906132f3565b91829055506040516b06465706f73697445524332360a41b6020820152602c8101959095526001600160601b0319606094851b8116604c87015284860193909352921b166080830152609482015260b40160405160208183030381529060405280519060200120905061166e8184848080601f016020809104026020016040519081016040528093929190818152602001838380828437600092019190915250611e2792505050565b61168b57604051638baa579f60e01b815260040160405180910390fd5b60405184815233906001600160a01b038716907f92584dae0a37f3a4967b43bce07cc1c84c6388eb89c9a7b3ba45a6700c3f25d69060200160405180910390a36108866001600160a01b038616333087612212565b6116e8611ddf565b6001600160a01b03851660009081526003602052604090205462010000900460ff1661172757604051630182f5dd60e51b815260040160405180910390fd5b826117455760405163162908e360e11b815260040160405180910390fd5b60004633600081815260026020526040812080548a938a938a93919261176a906132f3565b91829055506040516d6465706f7369744552433131353560901b6020820152602e8101969096526001600160601b0319606095861b8116604e8801526062870194909452608286019290925290921b1660a283015260b682015260d60160405160208183030381529060405280519060200120905061181f8184848080601f016020809104026020016040519081016040528093929190818152602001838380828437600092019190915250611e2792505050565b61183c57604051638baa579f60e01b815260040160405180910390fd5b604080518681526020810186905233916001600160a01b038916917f8f9fd392e3d162b77d95889defb581b1863b385dc3e04d31ed8c503bd84f23b8910160405180910390a3604051637921219560e11b81526001600160a01b0387169063f242432a9061150890339030908a908a90600401613125565b6118bc611d85565b6118c4611ddf565b6001600160a01b038316600090815260036020526040902054610100900460ff1661190257604051634642ba6d60e01b815260040160405180910390fd5b806119205760405163521299a960e01b815260040160405180910390fd5b60005b818110156119bd57836001600160a01b03166342966c6884848481811061195a57634e487b7160e01b600052603260045260246000fd5b905060200201356040518263ffffffff1660e01b815260040161197f91815260200190565b600060405180830381600087803b15801561199957600080fd5b505af11580156119ad573d6000803e3d6000fd5b5050600190920191506119239050565b50505050565b6119cb611d85565b6119d3611ddf565b6001600160a01b038816600090815260036020526040902054610100900460ff16611a1157604051634642ba6d60e01b815260040160405180910390fd5b6001600160a01b03871660009081526003602052604090205462010000900460ff16611a5057604051630182f5dd60e51b815260040160405180910390fd5b6001600160a01b03861660009081526003602052604090205460ff16611a895760405163be41ad2560e01b815260040160405180910390fd5b604051631ac8311560e21b81526001600160a01b03881690636b20c45490611abd903090899089908990899060040161315d565b600060405180830381600087803b158015611ad757600080fd5b505af1158015611aeb573d6000803e3d6000fd5b5050604051630852cd8d60e31b8152600481018490526001600160a01b03891692506342966c689150602401600060405180830381600087803b158015611b3157600080fd5b505af1158015611b45573d6000803e3d6000fd5b50506040516335313c2160e11b8152600092506001600160a01b038b169150636a62784290611b789030906004016130ed565b602060405180830381600087803b158015611b9257600080fd5b505af1158015611ba6573d6000803e3d6000fd5b505050506040513d601f19601f82011682018060405250810190611bca9190612f68565b9050886001600160a01b03167fe9d44049d01901967f623e3f17e8a9b71283e6dd2081e9331aa6104defab2c8782604051611c0791815260200190565b60405180910390a2505050505050505050565b6000856001600160a01b0316876001600160a01b03167fb5a44de9d3f8c601ddd35a37a0ef78831ed3f1497cda652ced7b7f8bc48531ec87878787604051611c659493929190613285565b60405180910390a35063f23a6e6160e01b9695505050505050565b611c88611d85565b6001600160a01b038116611cf25760405162461bcd60e51b815260206004820152602660248201527f4f776e61626c653a206e6577206f776e657220697320746865207a65726f206160448201526564647265737360d01b60648201526084015b60405180910390fd5b610fa1816120a1565b611d03611d85565b611d0b611ddf565b6001600160a01b038216600090815260036020526040902054610100900460ff16611d4957604051634642ba6d60e01b815260040160405180910390fd5b604051630852cd8d60e31b8152600481018290526001600160a01b038316906342966c6890602401610f5a565b6001600160a01b03163b151590565b6000546001600160a01b0316331461089d5760405162461bcd60e51b815260206004820181905260248201527f4f776e61626c653a2063616c6c6572206973206e6f7420746865206f776e65726044820152606401611ce9565b611de7610ed2565b1561089d5760405162461bcd60e51b815260206004820152601060248201526f14185d5cd8589b194e881c185d5cd95960821b6044820152606401611ce9565b600080611e81846040517f19457468657265756d205369676e6564204d6573736167653a0a3332000000006020820152603c8101829052600090605c01604051602081830303815290604052805190602001209050919050565b6001549091506001600160a01b0316611e9a8285612233565b6001600160a01b031614949350505050565b806001600160a01b0316836001600160a01b03167f5b9ade5e5b111454e3946f02692835718e1ac70c68e1ad567c614600b5c025f484604051611ef191815260200190565b60405180910390a3604051632142170760e11b81526001600160a01b038416906342842e0e9061127f90309085908790600401613101565b6040516001600160a01b03831660248201526044810182905261109290849063a9059cbb60e01b906064015b60408051601f198184030181529190526020810180516001600160e01b03166001600160e01b031990931692909217909152612257565b611f94612329565b6000805460ff60a01b191690557f5db9ee0a495bf2e6ff9c91a7834c1ba4fdd244a5e8aa4e537bd38aeae4b073aa335b604051611fd191906130ed565b60405180910390a1565b6001546001600160a01b038281169116141561200a576040516395ef0ed360e01b815260040160405180910390fd5b6001600160a01b038116158061202d575061202d816001600160a01b0316611d76565b1561204b5760405163e6c4247b60e01b815260040160405180910390fd5b600180546001600160a01b0319166001600160a01b0383161790556040517f0e0e80fd67025937b2e06916c487df53d79b7bfe21bb07f93aa1ea8360bbde16906120969083906130ed565b60405180910390a150565b600080546001600160a01b038381166001600160a01b0319831681178455604051919092169283917f8be0079c531659141344cd1fd0a4f28419497f9722a3daafe3b4186f6b6457e09190a35050565b6120f9611ddf565b6000805460ff60a01b1916600160a01b1790557f62e78cea01bee320cd4e420270b5ea74000d11b0c9f74754ebdbfc544b05a258611fc43390565b816121525760405163162908e360e11b815260040160405180910390fd5b806001600160a01b0316846001600160a01b03167f67e80b2c5356769e75667794afcc3f1408e007854814ca8ef81912ba494d6d2f85856040516121a0929190918252602082015260400190565b60405180910390a3604051637921219560e11b81526001600160a01b0385169063f242432a906121da903090339088908890600401613125565b600060405180830381600087803b1580156121f457600080fd5b505af1158015612208573d6000803e3d6000fd5b5050505050505050565b6119bd846323b872dd60e01b858585604051602401611f5593929190613101565b60008060006122428585612374565b9150915061224f816123e4565b509392505050565b60006122ac826040518060400160405280602081526020017f5361666545524332303a206c6f772d6c6576656c2063616c6c206661696c6564815250856001600160a01b03166125e09092919063ffffffff16565b80519091501561109257808060200190518101906122ca9190612b18565b6110925760405162461bcd60e51b815260206004820152602a60248201527f5361666545524332303a204552433230206f7065726174696f6e20646964206e6044820152691bdd081cdd58d8d9595960b21b6064820152608401611ce9565b612331610ed2565b61089d5760405162461bcd60e51b815260206004820152601460248201527314185d5cd8589b194e881b9bdd081c185d5cd95960621b6044820152606401611ce9565b6000808251604114156123ab5760208301516040840151606085015160001a61239f878285856125f9565b945094505050506123dd565b8251604014156123d557602083015160408401516123ca8683836126dc565b9350935050506123dd565b506000905060025b9250929050565b600081600481111561240657634e487b7160e01b600052602160045260246000fd5b141561240f5750565b600181600481111561243157634e487b7160e01b600052602160045260246000fd5b141561247a5760405162461bcd60e51b815260206004820152601860248201527745434453413a20696e76616c6964207369676e617475726560401b6044820152606401611ce9565b600281600481111561249c57634e487b7160e01b600052602160045260246000fd5b14156124ea5760405162461bcd60e51b815260206004820152601f60248201527f45434453413a20696e76616c6964207369676e6174757265206c656e677468006044820152606401611ce9565b600381600481111561250c57634e487b7160e01b600052602160045260246000fd5b14156125655760405162461bcd60e51b815260206004820152602260248201527f45434453413a20696e76616c6964207369676e6174757265202773272076616c604482015261756560f01b6064820152608401611ce9565b600481600481111561258757634e487b7160e01b600052602160045260246000fd5b1415610fa15760405162461bcd60e51b815260206004820152602260248201527f45434453413a20696e76616c6964207369676e6174757265202776272076616c604482015261756560f01b6064820152608401611ce9565b60606125ef8484600085612715565b90505b9392505050565b6000806fa2a8918ca85bafe22016d0b997e4df60600160ff1b0383111561262657506000905060036126d3565b8460ff16601b1415801561263e57508460ff16601c14155b1561264f57506000905060046126d3565b6040805160008082526020820180845289905260ff881692820192909252606081018690526080810185905260019060a0016020604051602081039080840390855afa1580156126a3573d6000803e3d6000fd5b5050604051601f1901519150506001600160a01b0381166126cc576000600192509250506126d3565b9150600090505b94509492505050565b6000806001600160ff1b038316816126f960ff86901c601b6132af565b9050612707878288856125f9565b935093505050935093915050565b6060824710156127765760405162461bcd60e51b815260206004820152602660248201527f416464726573733a20696e73756666696369656e742062616c616e636520666f6044820152651c8818d85b1b60d21b6064820152608401611ce9565b61277f85611d76565b6127cb5760405162461bcd60e51b815260206004820152601d60248201527f416464726573733a2063616c6c20746f206e6f6e2d636f6e74726163740000006044820152606401611ce9565b600080866001600160a01b031685876040516127e79190613008565b60006040518083038185875af1925050503d8060008114612824576040519150601f19603f3d011682016040523d82523d6000602084013e612829565b606091505b5091509150612839828286612844565b979650505050505050565b606083156128535750816125f2565b8251156128635782518084602001fd5b8160405162461bcd60e51b8152600401611ce991906131ea565b60008083601f84011261288e578182fd5b5081356001600160401b038111156128a4578182fd5b6020830191508360208260051b85010111156123dd57600080fd5b60008083601f8401126128d0578182fd5b5081356001600160401b038111156128e6578182fd5b6020830191508360208285010111156123dd57600080fd5b60006020828403121561290f578081fd5b81356125f281613394565b60006020828403121561292b578081fd5b81516125f281613394565b60008060008060008060008060a0898b031215612951578384fd5b883561295c81613394565b9750602089013561296c81613394565b965060408901356001600160401b0380821115612987578586fd5b6129938c838d0161287d565b909850965060608b01359150808211156129ab578586fd5b6129b78c838d0161287d565b909650945060808b01359150808211156129cf578384fd5b506129dc8b828c016128bf565b999c989b5096995094979396929594505050565b600080600080600060808688031215612a07578081fd5b8535612a1281613394565b94506020860135612a2281613394565b93506040860135925060608601356001600160401b03811115612a43578182fd5b612a4f888289016128bf565b969995985093965092949392505050565b60008060008060008060a08789031215612a78578182fd5b8635612a8381613394565b95506020870135612a9381613394565b9450604087013593506060870135925060808701356001600160401b03811115612abb578283fd5b612ac789828a016128bf565b979a9699509497509295939492505050565b6000808284036080811215612aec578283fd5b8335612af781613394565b92506060601f1982011215612b0a578182fd5b506020830190509250929050565b600060208284031215612b29578081fd5b81516125f2816133a9565b600060208284031215612b45578081fd5b81356001600160e01b0319811681146125f2578182fd5b60008060408385031215612b6e578081fd5b8235612b7981613394565b91506020830135612b8981613394565b809150509250929050565b600080600060608486031215612ba8578081fd5b8335612bb381613394565b92506020840135612bc381613394565b929592945050506040919091013590565b600080600060408486031215612be8578081fd5b8335612bf381613394565b925060208401356001600160401b03811115612c0d578182fd5b612c198682870161287d565b9497909650939450505050565b60008060008060008060008060c0898b031215612c41578182fd5b8835612c4c81613394565b97506020890135612c5c81613394565b96506040890135612c6c81613394565b955060608901356001600160401b0380821115612c87578384fd5b612c938c838d0161287d565b909750955060808b0135915080821115612cab578384fd5b50612cb88b828c0161287d565b999c989b50969995989497949560a00135949350505050565b60008060408385031215612ce3578182fd5b8235612cee81613394565b946020939093013593505050565b600080600060608486031215612d10578081fd5b8335612d1b81613394565b95602085013595506040909401359392505050565b60008060008060008060006080888a031215612d4a578081fd5b8735612d5581613394565b965060208801356001600160401b0380821115612d70578283fd5b612d7c8b838c0161287d565b909850965060408a0135915080821115612d94578283fd5b612da08b838c0161287d565b909650945060608a0135915080821115612db8578283fd5b50612dc58a828b016128bf565b989b979a50959850939692959293505050565b600080600080600060808688031215612def578283fd5b8535612dfa81613394565b9450602086013593506040860135925060608601356001600160401b03811115612a43578182fd5b60008060008060608587031215612e37578182fd5b8435612e4281613394565b93506020850135925060408501356001600160401b03811115612e63578283fd5b612e6f878288016128bf565b95989497509550505050565b600080600080600060608688031215612e92578283fd5b8535612e9d81613394565b945060208601356001600160401b0380821115612eb8578485fd5b612ec489838a0161287d565b90965094506040880135915080821115612edc578283fd5b50612a4f888289016128bf565b60008060008060008060808789031215612f01578384fd5b8635612f0c81613394565b95506020870135612f1c81613394565b945060408701356001600160401b0380821115612f37578586fd5b612f438a838b0161287d565b90965094506060890135915080821115612f5b578384fd5b50612ac789828a0161287d565b600060208284031215612f79578081fd5b5051919050565b81835260006001600160fb1b03831115612f98578081fd5b8260051b80836020870137939093016020019283525090919050565b60006001600160fb1b03831115612fc9578081fd5b8260051b80838637939093019283525090919050565b81835281816020850137506000828201602090810191909152601f909101601f19169091010190565b6000825161301a8184602087016132c7565b9190910192915050565b720eed2e8d0c8e4c2ee8aa4866e646284c2e8c6d606b1b815286601382015260006001600160601b0319808860601b166033840152613067604784018789612fb4565b60609590951b16845250506014820152603401949350505050565b730eed2e8d0c8e4c2ee8aa48662626a6a84c2e8c6d60631b815288601482015260006001600160601b0319808a60601b1660348401526130d06130c9604885018a8c612fb4565b8789612fb4565b60609590951b168452505060148201526034019695505050505050565b6001600160a01b0391909116815260200190565b6001600160a01b039384168152919092166020820152604081019190915260600190565b6001600160a01b0394851681529290931660208301526040820152606081019190915260a06080820181905260009082015260c00190565b6001600160a01b03861681526060602082018190526000906131829083018688612f80565b8281036040840152613195818587612f80565b98975050505050505050565b6060815260006131b560608301888a612f80565b82810360208401526131c8818789612f80565b905082810360408401526131dd818587612fdf565b9998505050505050505050565b60208152600082518060208401526132098160408501602087016132c7565b601f01601f19169190910160400192915050565b60608101823561322c816133a9565b15158252602083013561323e816133a9565b151560208301526040830135613253816133a9565b80151560408401525092915050565b83815260406020820152600061327c604083018486612fdf565b95945050505050565b8481528360208201526060604082015260006132a5606083018486612fdf565b9695505050505050565b600082198211156132c2576132c261330e565b500190565b60005b838110156132e25781810151838201526020016132ca565b838111156119bd5750506000910152565b60006000198214156133075761330761330e565b5060010190565b634e487b7160e01b600052601160045260246000fd5b813561332f816133a9565b815460ff19811691151560ff169182178355602084013561334f816133a9565b61ff0090151560081b1661ffff1982168317811784556040850135613373816133a9565b62ffffff19929092169092179190911790151560101b62ff00001617905550565b6001600160a01b0381168114610fa157600080fd5b8015158114610fa157600080fdfea2646970667358221220474a044a565aaf602e1bc37e52dedb57ac01fc59acf3e661cef70a684331641264736f6c63430008040033",
  "linkReferences": {},
  "deployedLinkReferences": {}
}